{
  "_format": "hh-sol-artifact-1",
  "contractName": "DropKitCollection",
  "sourceName": "contracts/DropKitCollection.sol",
  "abi": [
    {
      "inputs": [
        {
          "internalType": "string",
          "name": "name",
          "type": "string"
        },
        {
          "internalType": "string",
          "name": "symbol",
          "type": "string"
        },
        {
          "internalType": "uint256",
          "name": "maxAmount",
          "type": "uint256"
        },
        {
          "internalType": "uint256",
          "name": "maxPerMint",
          "type": "uint256"
        },
        {
          "internalType": "uint256",
          "name": "maxPerWallet",
          "type": "uint256"
        },
        {
          "internalType": "uint256",
          "name": "price",
          "type": "uint256"
        },
        {
          "internalType": "string",
          "name": "tokenBaseURI",
          "type": "string"
        }
      ],
      "stateMutability": "nonpayable",
      "type": "constructor"
    },
    {
      "anonymous": false,
      "inputs": [
        {
          "indexed": true,
          "internalType": "address",
          "name": "owner",
          "type": "address"
        },
        {
          "indexed": true,
          "internalType": "address",
          "name": "approved",
          "type": "address"
        },
        {
          "indexed": true,
          "internalType": "uint256",
          "name": "tokenId",
          "type": "uint256"
        }
      ],
      "name": "Approval",
      "type": "event"
    },
    {
      "anonymous": false,
      "inputs": [
        {
          "indexed": true,
          "internalType": "address",
          "name": "owner",
          "type": "address"
        },
        {
          "indexed": true,
          "internalType": "address",
          "name": "operator",
          "type": "address"
        },
        {
          "indexed": false,
          "internalType": "bool",
          "name": "approved",
          "type": "bool"
        }
      ],
      "name": "ApprovalForAll",
      "type": "event"
    },
    {
      "anonymous": false,
      "inputs": [
        {
          "indexed": true,
          "internalType": "address",
          "name": "previousOwner",
          "type": "address"
        },
        {
          "indexed": true,
          "internalType": "address",
          "name": "newOwner",
          "type": "address"
        }
      ],
      "name": "OwnershipTransferred",
      "type": "event"
    },
    {
      "anonymous": false,
      "inputs": [
        {
          "indexed": true,
          "internalType": "address",
          "name": "from",
          "type": "address"
        },
        {
          "indexed": true,
          "internalType": "address",
          "name": "to",
          "type": "address"
        },
        {
          "indexed": true,
          "internalType": "uint256",
          "name": "tokenId",
          "type": "uint256"
        }
      ],
      "name": "Transfer",
      "type": "event"
    },
    {
      "inputs": [],
      "name": "_maxAmount",
      "outputs": [
        {
          "internalType": "uint256",
          "name": "",
          "type": "uint256"
        }
      ],
      "stateMutability": "view",
      "type": "function"
    },
    {
      "inputs": [],
      "name": "_maxPerMint",
      "outputs": [
        {
          "internalType": "uint256",
          "name": "",
          "type": "uint256"
        }
      ],
      "stateMutability": "view",
      "type": "function"
    },
    {
      "inputs": [],
      "name": "_maxPerWallet",
      "outputs": [
        {
          "internalType": "uint256",
          "name": "",
          "type": "uint256"
        }
      ],
      "stateMutability": "view",
      "type": "function"
    },
    {
      "inputs": [],
      "name": "_price",
      "outputs": [
        {
          "internalType": "uint256",
          "name": "",
          "type": "uint256"
        }
      ],
      "stateMutability": "view",
      "type": "function"
    },
    {
      "inputs": [
        {
          "internalType": "uint256",
          "name": "numberOfTokens",
          "type": "uint256"
        },
        {
          "internalType": "address",
          "name": "recipient",
          "type": "address"
        }
      ],
      "name": "airdrop",
      "outputs": [],
      "stateMutability": "payable",
      "type": "function"
    },
    {
      "inputs": [
        {
          "internalType": "address",
          "name": "to",
          "type": "address"
        },
        {
          "internalType": "uint256",
          "name": "tokenId",
          "type": "uint256"
        }
      ],
      "name": "approve",
      "outputs": [],
      "stateMutability": "nonpayable",
      "type": "function"
    },
    {
      "inputs": [
        {
          "internalType": "address",
          "name": "owner",
          "type": "address"
        }
      ],
      "name": "balanceOf",
      "outputs": [
        {
          "internalType": "uint256",
          "name": "",
          "type": "uint256"
        }
      ],
      "stateMutability": "view",
      "type": "function"
    },
    {
      "inputs": [
        {
          "internalType": "uint256",
          "name": "amount",
          "type": "uint256"
        }
      ],
      "name": "commissionAmount",
      "outputs": [
        {
          "internalType": "uint256",
          "name": "",
          "type": "uint256"
        }
      ],
      "stateMutability": "pure",
      "type": "function"
    },
    {
      "inputs": [],
      "name": "feesClaimed",
      "outputs": [
        {
          "internalType": "uint256",
          "name": "",
          "type": "uint256"
        }
      ],
      "stateMutability": "view",
      "type": "function"
    },
    {
      "inputs": [
        {
          "internalType": "uint256",
          "name": "tokenId",
          "type": "uint256"
        }
      ],
      "name": "getApproved",
      "outputs": [
        {
          "internalType": "address",
          "name": "",
          "type": "address"
        }
      ],
      "stateMutability": "view",
      "type": "function"
    },
    {
      "inputs": [
        {
          "internalType": "address",
          "name": "owner",
          "type": "address"
        },
        {
          "internalType": "address",
          "name": "operator",
          "type": "address"
        }
      ],
      "name": "isApprovedForAll",
      "outputs": [
        {
          "internalType": "bool",
          "name": "",
          "type": "bool"
        }
      ],
      "stateMutability": "view",
      "type": "function"
    },
    {
      "inputs": [
        {
          "internalType": "uint256",
          "name": "numberOfTokens",
          "type": "uint256"
        }
      ],
      "name": "mint",
      "outputs": [],
      "stateMutability": "payable",
      "type": "function"
    },
    {
      "inputs": [],
      "name": "name",
      "outputs": [
        {
          "internalType": "string",
          "name": "",
          "type": "string"
        }
      ],
      "stateMutability": "view",
      "type": "function"
    },
    {
      "inputs": [],
      "name": "niftyKitFees",
      "outputs": [
        {
          "internalType": "uint256",
          "name": "",
          "type": "uint256"
        }
      ],
      "stateMutability": "view",
      "type": "function"
    },
    {
      "inputs": [],
      "name": "owner",
      "outputs": [
        {
          "internalType": "address",
          "name": "",
          "type": "address"
        }
      ],
      "stateMutability": "view",
      "type": "function"
    },
    {
      "inputs": [
        {
          "internalType": "uint256",
          "name": "tokenId",
          "type": "uint256"
        }
      ],
      "name": "ownerOf",
      "outputs": [
        {
          "internalType": "address",
          "name": "",
          "type": "address"
        }
      ],
      "stateMutability": "view",
      "type": "function"
    },
    {
      "inputs": [],
      "name": "pause",
      "outputs": [],
      "stateMutability": "nonpayable",
      "type": "function"
    },
    {
      "inputs": [
        {
          "internalType": "uint256",
          "name": "numberOfTokens",
          "type": "uint256"
        },
        {
          "internalType": "bytes32[]",
          "name": "proof",
          "type": "bytes32[]"
        }
      ],
      "name": "presaleMint",
      "outputs": [],
      "stateMutability": "payable",
      "type": "function"
    },
    {
      "inputs": [],
      "name": "renounceOwnership",
      "outputs": [],
      "stateMutability": "nonpayable",
      "type": "function"
    },
    {
      "inputs": [
        {
          "internalType": "address",
          "name": "from",
          "type": "address"
        },
        {
          "internalType": "address",
          "name": "to",
          "type": "address"
        },
        {
          "internalType": "uint256",
          "name": "tokenId",
          "type": "uint256"
        }
      ],
      "name": "safeTransferFrom",
      "outputs": [],
      "stateMutability": "nonpayable",
      "type": "function"
    },
    {
      "inputs": [
        {
          "internalType": "address",
          "name": "from",
          "type": "address"
        },
        {
          "internalType": "address",
          "name": "to",
          "type": "address"
        },
        {
          "internalType": "uint256",
          "name": "tokenId",
          "type": "uint256"
        },
        {
          "internalType": "bytes",
          "name": "_data",
          "type": "bytes"
        }
      ],
      "name": "safeTransferFrom",
      "outputs": [],
      "stateMutability": "nonpayable",
      "type": "function"
    },
    {
      "inputs": [
        {
          "internalType": "address",
          "name": "operator",
          "type": "address"
        },
        {
          "internalType": "bool",
          "name": "approved",
          "type": "bool"
        }
      ],
      "name": "setApprovalForAll",
      "outputs": [],
      "stateMutability": "nonpayable",
      "type": "function"
    },
    {
      "inputs": [
        {
          "internalType": "string",
          "name": "newBaseURI",
          "type": "string"
        }
      ],
      "name": "setBaseURI",
      "outputs": [],
      "stateMutability": "nonpayable",
      "type": "function"
    },
    {
      "inputs": [
        {
          "internalType": "bytes32",
          "name": "root",
          "type": "bytes32"
        }
      ],
      "name": "setMerkleRoot",
      "outputs": [],
      "stateMutability": "nonpayable",
      "type": "function"
    },
    {
      "inputs": [
        {
          "internalType": "uint256",
          "name": "maxPerMint",
          "type": "uint256"
        },
        {
          "internalType": "uint256",
          "name": "maxPerWallet",
          "type": "uint256"
        },
        {
          "internalType": "uint256",
          "name": "price",
          "type": "uint256"
        }
      ],
      "name": "setParameters",
      "outputs": [],
      "stateMutability": "nonpayable",
      "type": "function"
    },
    {
      "inputs": [],
      "name": "start",
      "outputs": [],
      "stateMutability": "nonpayable",
      "type": "function"
    },
    {
      "inputs": [],
      "name": "started",
      "outputs": [
        {
          "internalType": "bool",
          "name": "",
          "type": "bool"
        }
      ],
      "stateMutability": "view",
      "type": "function"
    },
    {
      "inputs": [
        {
          "internalType": "bytes4",
          "name": "interfaceId",
          "type": "bytes4"
        }
      ],
      "name": "supportsInterface",
      "outputs": [
        {
          "internalType": "bool",
          "name": "",
          "type": "bool"
        }
      ],
      "stateMutability": "view",
      "type": "function"
    },
    {
      "inputs": [],
      "name": "symbol",
      "outputs": [
        {
          "internalType": "string",
          "name": "",
          "type": "string"
        }
      ],
      "stateMutability": "view",
      "type": "function"
    },
    {
      "inputs": [
        {
          "internalType": "uint256",
          "name": "index",
          "type": "uint256"
        }
      ],
      "name": "tokenByIndex",
      "outputs": [
        {
          "internalType": "uint256",
          "name": "",
          "type": "uint256"
        }
      ],
      "stateMutability": "view",
      "type": "function"
    },
    {
      "inputs": [
        {
          "internalType": "address",
          "name": "owner",
          "type": "address"
        },
        {
          "internalType": "uint256",
          "name": "index",
          "type": "uint256"
        }
      ],
      "name": "tokenOfOwnerByIndex",
      "outputs": [
        {
          "internalType": "uint256",
          "name": "",
          "type": "uint256"
        }
      ],
      "stateMutability": "view",
      "type": "function"
    },
    {
      "inputs": [
        {
          "internalType": "uint256",
          "name": "tokenId",
          "type": "uint256"
        }
      ],
      "name": "tokenURI",
      "outputs": [
        {
          "internalType": "string",
          "name": "",
          "type": "string"
        }
      ],
      "stateMutability": "view",
      "type": "function"
    },
    {
      "inputs": [],
      "name": "totalRevenue",
      "outputs": [
        {
          "internalType": "uint256",
          "name": "",
          "type": "uint256"
        }
      ],
      "stateMutability": "view",
      "type": "function"
    },
    {
      "inputs": [],
      "name": "totalSupply",
      "outputs": [
        {
          "internalType": "uint256",
          "name": "",
          "type": "uint256"
        }
      ],
      "stateMutability": "view",
      "type": "function"
    },
    {
      "inputs": [
        {
          "internalType": "address",
          "name": "from",
          "type": "address"
        },
        {
          "internalType": "address",
          "name": "to",
          "type": "address"
        },
        {
          "internalType": "uint256",
          "name": "tokenId",
          "type": "uint256"
        }
      ],
      "name": "transferFrom",
      "outputs": [],
      "stateMutability": "nonpayable",
      "type": "function"
    },
    {
      "inputs": [
        {
          "internalType": "address",
          "name": "newOwner",
          "type": "address"
        }
      ],
      "name": "transferOwnership",
      "outputs": [],
      "stateMutability": "nonpayable",
      "type": "function"
    },
    {
      "inputs": [],
      "name": "withdraw",
      "outputs": [],
      "stateMutability": "nonpayable",
      "type": "function"
    }
  ],
  "bytecode": "0x60a06040526e0c2e074ec69a0dfb2997ba6c7d2e1e600b60006101000a81548173ffffffffffffffffffffffffffffffffffffffff021916908373ffffffffffffffffffffffffffffffffffffffff1602179055506000601260006101000a81548160ff0219169083151502179055506000601355600060145560006015553480156200008b57600080fd5b50604051620058e8380380620058e88339818101604052810190620000b1919062000351565b86868160009080519060200190620000cb92919062000218565b508060019080519060200190620000e492919062000218565b50505062000107620000fb6200014a60201b60201c565b6200015260201b60201c565b846080818152505083600c8190555082600d8190555081600e8190555080600f90805190602001906200013c92919062000218565b5050505050505050620005dd565b600033905090565b6000600a60009054906101000a900473ffffffffffffffffffffffffffffffffffffffff16905081600a60006101000a81548173ffffffffffffffffffffffffffffffffffffffff021916908373ffffffffffffffffffffffffffffffffffffffff1602179055508173ffffffffffffffffffffffffffffffffffffffff168173ffffffffffffffffffffffffffffffffffffffff167f8be0079c531659141344cd1fd0a4f28419497f9722a3daafe3b4186f6b6457e060405160405180910390a35050565b8280546200022690620004e8565b90600052602060002090601f0160209004810192826200024a576000855562000296565b82601f106200026557805160ff191683800117855562000296565b8280016001018555821562000296579182015b828111156200029557825182559160200191906001019062000278565b5b509050620002a59190620002a9565b5090565b5b80821115620002c4576000816000905550600101620002aa565b5090565b6000620002df620002d98462000472565b62000449565b905082815260208101848484011115620002f857600080fd5b62000305848285620004b2565b509392505050565b600082601f8301126200031f57600080fd5b815162000331848260208601620002c8565b91505092915050565b6000815190506200034b81620005c3565b92915050565b600080600080600080600060e0888a0312156200036d57600080fd5b600088015167ffffffffffffffff8111156200038857600080fd5b620003968a828b016200030d565b975050602088015167ffffffffffffffff811115620003b457600080fd5b620003c28a828b016200030d565b9650506040620003d58a828b016200033a565b9550506060620003e88a828b016200033a565b9450506080620003fb8a828b016200033a565b93505060a06200040e8a828b016200033a565b92505060c088015167ffffffffffffffff8111156200042c57600080fd5b6200043a8a828b016200030d565b91505092959891949750929550565b60006200045562000468565b90506200046382826200051e565b919050565b6000604051905090565b600067ffffffffffffffff82111562000490576200048f62000583565b5b6200049b82620005b2565b9050602081019050919050565b6000819050919050565b60005b83811015620004d2578082015181840152602081019050620004b5565b83811115620004e2576000848401525b50505050565b600060028204905060018216806200050157607f821691505b6020821081141562000518576200051762000554565b5b50919050565b6200052982620005b2565b810181811067ffffffffffffffff821117156200054b576200054a62000583565b5b80604052505050565b7f4e487b7100000000000000000000000000000000000000000000000000000000600052602260045260246000fd5b7f4e487b7100000000000000000000000000000000000000000000000000000000600052604160045260246000fd5b6000601f19601f8301169050919050565b620005ce81620004a8565b8114620005da57600080fd5b50565b6080516152da6200060e6000396000818161125d015281816115bf015281816119b00152611e1d01526152da6000f3fe60806040526004361061021a5760003560e01c806378a0ee8611610123578063a22cb465116100ab578063c596bc641161006f578063c596bc641461077f578063c87b56dd146107aa578063e3e1e8ef146107e7578063e985e9c514610803578063f2fde38b146108405761021a565b8063a22cb465146106cf578063b88d4fde146106f8578063bc63f02e14610721578063be9a65551461073d578063bf2d9e0b146107545761021a565b80638456cb59116100f25780638456cb59146106095780638da5cb5b1461062057806395d89b411461064b5780639c86bae414610676578063a0712d68146106b35761021a565b806378a0ee861461055f5780637cb647591461058a5780637e6decae146105b35780637fa8e5e4146105de5761021a565b806334c5d2ce116101a65780634f6ccce7116101755780634f6ccce71461046857806355f804b3146104a55780636352211e146104ce57806370a082311461050b578063715018a6146105485761021a565b806334c5d2ce146103d457806339f8db9a146103fd5780633ccfd60b1461042857806342842e0e1461043f5761021a565b806318160ddd116101ed57806318160ddd146102ed5780631f2698ab14610318578063235b6ea11461034357806323b872dd1461036e5780632f745c59146103975761021a565b806301ffc9a71461021f57806306fdde031461025c578063081812fc14610287578063095ea7b3146102c4575b600080fd5b34801561022b57600080fd5b5061024660048036038101906102419190613a42565b610869565b604051610253919061423b565b60405180910390f35b34801561026857600080fd5b5061027161087b565b60405161027e9190614271565b60405180910390f35b34801561029357600080fd5b506102ae60048036038101906102a99190613afe565b61090d565b6040516102bb91906141d4565b60405180910390f35b3480156102d057600080fd5b506102eb60048036038101906102e691906139dd565b610992565b005b3480156102f957600080fd5b50610302610aaa565b60405161030f9190614653565b60405180910390f35b34801561032457600080fd5b5061032d610ab7565b60405161033a919061423b565b60405180910390f35b34801561034f57600080fd5b50610358610aca565b6040516103659190614653565b60405180910390f35b34801561037a57600080fd5b50610395600480360381019061039091906138d7565b610ad0565b005b3480156103a357600080fd5b506103be60048036038101906103b991906139dd565b610b30565b6040516103cb9190614653565b60405180910390f35b3480156103e057600080fd5b506103fb60048036038101906103f69190613bbb565b610bd5565b005b34801561040957600080fd5b50610412610c6b565b60405161041f9190614653565b60405180910390f35b34801561043457600080fd5b5061043d610c71565b005b34801561044b57600080fd5b50610466600480360381019061046191906138d7565b610e90565b005b34801561047457600080fd5b5061048f600480360381019061048a9190613afe565b610eb0565b60405161049c9190614653565b60405180910390f35b3480156104b157600080fd5b506104cc60048036038101906104c79190613abd565b610f47565b005b3480156104da57600080fd5b506104f560048036038101906104f09190613afe565b610fdd565b60405161050291906141d4565b60405180910390f35b34801561051757600080fd5b50610532600480360381019061052d9190613849565b61108f565b60405161053f9190614653565b60405180910390f35b34801561055457600080fd5b5061055d611147565b005b34801561056b57600080fd5b506105746111cf565b6040516105819190614653565b60405180910390f35b34801561059657600080fd5b506105b160048036038101906105ac9190613a19565b6111d5565b005b3480156105bf57600080fd5b506105c861125b565b6040516105d59190614653565b60405180910390f35b3480156105ea57600080fd5b506105f361127f565b6040516106009190614653565b60405180910390f35b34801561061557600080fd5b5061061e611285565b005b34801561062c57600080fd5b50610635611374565b60405161064291906141d4565b60405180910390f35b34801561065757600080fd5b5061066061139e565b60405161066d9190614271565b60405180910390f35b34801561068257600080fd5b5061069d60048036038101906106989190613afe565b611430565b6040516106aa9190614653565b60405180910390f35b6106cd60048036038101906106c89190613afe565b611454565b005b3480156106db57600080fd5b506106f660048036038101906106f191906139a1565b61174f565b005b34801561070457600080fd5b5061071f600480360381019061071a9190613926565b6118d0565b005b61073b60048036038101906107369190613b27565b611932565b005b34801561074957600080fd5b50610752611acd565b005b34801561076057600080fd5b50610769611bbc565b6040516107769190614653565b60405180910390f35b34801561078b57600080fd5b50610794611bc2565b6040516107a19190614653565b60405180910390f35b3480156107b657600080fd5b506107d160048036038101906107cc9190613afe565b611bc8565b6040516107de9190614271565b60405180910390f35b61080160048036038101906107fc9190613b63565b611c6f565b005b34801561080f57600080fd5b5061082a6004803603810190610825919061389b565b611faf565b604051610837919061423b565b60405180910390f35b34801561084c57600080fd5b5061086760048036038101906108629190613849565b612043565b005b60006108748261213b565b9050919050565b60606000805461088a9061492a565b80601f01602080910402602001604051908101604052809291908181526020018280546108b69061492a565b80156109035780601f106108d857610100808354040283529160200191610903565b820191906000526020600020905b8154815290600101906020018083116108e657829003601f168201915b5050505050905090565b6000610918826121b5565b610957576040517f08c379a000000000000000000000000000000000000000000000000000000000815260040161094e906144f3565b60405180910390fd5b6004600083815260200190815260200160002060009054906101000a900473ffffffffffffffffffffffffffffffffffffffff169050919050565b600061099d82610fdd565b90508073ffffffffffffffffffffffffffffffffffffffff168373ffffffffffffffffffffffffffffffffffffffff161415610a0e576040517f08c379a0000000000000000000000000000000000000000000000000000000008152600401610a05906145b3565b60405180910390fd5b8073ffffffffffffffffffffffffffffffffffffffff16610a2d612221565b73ffffffffffffffffffffffffffffffffffffffff161480610a5c5750610a5b81610a56612221565b611faf565b5b610a9b576040517f08c379a0000000000000000000000000000000000000000000000000000000008152600401610a9290614433565b60405180910390fd5b610aa58383612229565b505050565b6000600880549050905090565b601260009054906101000a900460ff1681565b600e5481565b610ae1610adb612221565b826122e2565b610b20576040517f08c379a0000000000000000000000000000000000000000000000000000000008152600401610b17906145d3565b60405180910390fd5b610b2b8383836123c0565b505050565b6000610b3b8361108f565b8210610b7c576040517f08c379a0000000000000000000000000000000000000000000000000000000008152600401610b7390614313565b60405180910390fd5b600660008473ffffffffffffffffffffffffffffffffffffffff1673ffffffffffffffffffffffffffffffffffffffff168152602001908152602001600020600083815260200190815260200160002054905092915050565b610bdd612221565b73ffffffffffffffffffffffffffffffffffffffff16610bfb611374565b73ffffffffffffffffffffffffffffffffffffffff1614610c51576040517f08c379a0000000000000000000000000000000000000000000000000000000008152600401610c4890614513565b60405180910390fd5b82600c8190555081600d8190555080600e81905550505050565b60155481565b60004711610cb4576040517f08c379a0000000000000000000000000000000000000000000000000000000008152600401610cab906142f3565b60405180910390fd5b6000600b60009054906101000a900473ffffffffffffffffffffffffffffffffffffffff1673ffffffffffffffffffffffffffffffffffffffff16630178b8bf7fc5d1114c6023fd78e89dca4228d59c42fde243eba4d98bb8798037216662dd2160001b6040518263ffffffff1660e01b8152600401610d349190614256565b60206040518083038186803b158015610d4c57600080fd5b505afa158015610d60573d6000803e3d6000fd5b505050506040513d601f19601f82011682018060405250810190610d849190613a94565b905060004790506000601554601454610d9d9190614824565b9050610dbb610daa611374565b8284610db69190614824565b61261c565b610e708373ffffffffffffffffffffffffffffffffffffffff16633b3b57de7fc5d1114c6023fd78e89dca4228d59c42fde243eba4d98bb8798037216662dd2160001b6040518263ffffffff1660e01b8152600401610e1a9190614256565b60206040518083038186803b158015610e3257600080fd5b505afa158015610e46573d6000803e3d6000fd5b505050506040513d601f19601f82011682018060405250810190610e6a9190613872565b8261261c565b610e858160155461271090919063ffffffff16565b601581905550505050565b610eab838383604051806020016040528060008152506118d0565b505050565b6000610eba610aaa565b8210610efb576040517f08c379a0000000000000000000000000000000000000000000000000000000008152600401610ef2906145f3565b60405180910390fd5b60088281548110610f35577f4e487b7100000000000000000000000000000000000000000000000000000000600052603260045260246000fd5b90600052602060002001549050919050565b610f4f612221565b73ffffffffffffffffffffffffffffffffffffffff16610f6d611374565b73ffffffffffffffffffffffffffffffffffffffff1614610fc3576040517f08c379a0000000000000000000000000000000000000000000000000000000008152600401610fba90614513565b60405180910390fd5b80600f9080519060200190610fd99291906135e4565b5050565b6000806002600084815260200190815260200160002060009054906101000a900473ffffffffffffffffffffffffffffffffffffffff169050600073ffffffffffffffffffffffffffffffffffffffff168173ffffffffffffffffffffffffffffffffffffffff161415611086576040517f08c379a000000000000000000000000000000000000000000000000000000000815260040161107d90614473565b60405180910390fd5b80915050919050565b60008073ffffffffffffffffffffffffffffffffffffffff168273ffffffffffffffffffffffffffffffffffffffff161415611100576040517f08c379a00000000000000000000000000000000000000000000000000000000081526004016110f790614453565b60405180910390fd5b600360008373ffffffffffffffffffffffffffffffffffffffff1673ffffffffffffffffffffffffffffffffffffffff168152602001908152602001600020549050919050565b61114f612221565b73ffffffffffffffffffffffffffffffffffffffff1661116d611374565b73ffffffffffffffffffffffffffffffffffffffff16146111c3576040517f08c379a00000000000000000000000000000000000000000000000000000000081526004016111ba90614513565b60405180910390fd5b6111cd6000612726565b565b60145481565b6111dd612221565b73ffffffffffffffffffffffffffffffffffffffff166111fb611374565b73ffffffffffffffffffffffffffffffffffffffff1614611251576040517f08c379a000000000000000000000000000000000000000000000000000000000815260040161124890614513565b60405180910390fd5b8060108190555050565b7f000000000000000000000000000000000000000000000000000000000000000081565b600d5481565b61128d612221565b73ffffffffffffffffffffffffffffffffffffffff166112ab611374565b73ffffffffffffffffffffffffffffffffffffffff1614611301576040517f08c379a00000000000000000000000000000000000000000000000000000000081526004016112f890614513565b60405180910390fd5b60011515601260009054906101000a900460ff16151514611357576040517f08c379a000000000000000000000000000000000000000000000000000000000815260040161134e906144b3565b60405180910390fd5b6000601260006101000a81548160ff021916908315150217905550565b6000600a60009054906101000a900473ffffffffffffffffffffffffffffffffffffffff16905090565b6060600180546113ad9061492a565b80601f01602080910402602001604051908101604052809291908181526020018280546113d99061492a565b80156114265780601f106113fb57610100808354040283529160200191611426565b820191906000526020600020905b81548152906001019060200180831161140957829003601f168201915b5050505050905090565b6000612710826101f461144391906147ca565b61144d9190614799565b9050919050565b60011515601260009054906101000a900460ff161515146114aa576040517f08c379a00000000000000000000000000000000000000000000000000000000081526004016114a1906142b3565b60405180910390fd5b600c548111156114ef576040517f08c379a00000000000000000000000000000000000000000000000000000000081526004016114e6906142d3565b60405180910390fd5b60008111611532576040517f08c379a000000000000000000000000000000000000000000000000000000000815260040161152990614573565b60405180910390fd5b600d5460116000611541612221565b73ffffffffffffffffffffffffffffffffffffffff1673ffffffffffffffffffffffffffffffffffffffff1681526020019081526020016000205411156115bd576040517f08c379a00000000000000000000000000000000000000000000000000000000081526004016115b490614633565b60405180910390fd5b7f00000000000000000000000000000000000000000000000000000000000000006115f8826115ea610aaa565b61271090919063ffffffff16565b1115611639576040517f08c379a000000000000000000000000000000000000000000000000000000000815260040161163090614593565b60405180910390fd5b3461164f82600e546127ec90919063ffffffff16565b1461168f576040517f08c379a000000000000000000000000000000000000000000000000000000000815260040161168690614493565b60405180910390fd5b6116c06116af6116aa83600e546127ec90919063ffffffff16565b611430565b60145461271090919063ffffffff16565b6014819055506116db3460135461271090919063ffffffff16565b60138190555061173a81601160006116f1612221565b73ffffffffffffffffffffffffffffffffffffffff1673ffffffffffffffffffffffffffffffffffffffff1681526020019081526020016000205461271090919063ffffffff16565b5061174c81611747612221565b612802565b50565b611757612221565b73ffffffffffffffffffffffffffffffffffffffff168273ffffffffffffffffffffffffffffffffffffffff1614156117c5576040517f08c379a00000000000000000000000000000000000000000000000000000000081526004016117bc906143b3565b60405180910390fd5b80600560006117d2612221565b73ffffffffffffffffffffffffffffffffffffffff1673ffffffffffffffffffffffffffffffffffffffff16815260200190815260200160002060008473ffffffffffffffffffffffffffffffffffffffff1673ffffffffffffffffffffffffffffffffffffffff16815260200190815260200160002060006101000a81548160ff0219169083151502179055508173ffffffffffffffffffffffffffffffffffffffff1661187f612221565b73ffffffffffffffffffffffffffffffffffffffff167f17307eab39ab6107e8899845ad3d59bd9653f200f220920489ca2b5937696c31836040516118c4919061423b565b60405180910390a35050565b6118e16118db612221565b836122e2565b611920576040517f08c379a0000000000000000000000000000000000000000000000000000000008152600401611917906145d3565b60405180910390fd5b61192c84848484612848565b50505050565b61193a612221565b73ffffffffffffffffffffffffffffffffffffffff16611958611374565b73ffffffffffffffffffffffffffffffffffffffff16146119ae576040517f08c379a00000000000000000000000000000000000000000000000000000000081526004016119a590614513565b60405180910390fd5b7f00000000000000000000000000000000000000000000000000000000000000006119e9836119db610aaa565b61271090919063ffffffff16565b1115611a2a576040517f08c379a0000000000000000000000000000000000000000000000000000000008152600401611a2190614593565b60405180910390fd5b34611a48611a4384600e546127ec90919063ffffffff16565b611430565b14611a88576040517f08c379a0000000000000000000000000000000000000000000000000000000008152600401611a7f90614493565b60405180910390fd5b611ab9611aa8611aa384600e546127ec90919063ffffffff16565b611430565b60145461271090919063ffffffff16565b601481905550611ac98282612802565b5050565b611ad5612221565b73ffffffffffffffffffffffffffffffffffffffff16611af3611374565b73ffffffffffffffffffffffffffffffffffffffff1614611b49576040517f08c379a0000000000000000000000000000000000000000000000000000000008152600401611b4090614513565b60405180910390fd5b60001515601260009054906101000a900460ff16151514611b9f576040517f08c379a0000000000000000000000000000000000000000000000000000000008152600401611b9690614613565b60405180910390fd5b6001601260006101000a81548160ff021916908315150217905550565b60135481565b600c5481565b6060611bd3826121b5565b611c12576040517f08c379a0000000000000000000000000000000000000000000000000000000008152600401611c0990614553565b60405180910390fd5b6000611c1c6128a4565b90506000815111611c3c5760405180602001604052806000815250611c67565b80611c4684612936565b604051602001611c5792919061419b565b6040516020818303038152906040525b915050919050565b611cc9611c82611c7d612221565b612ae3565b838380806020026020016040519081016040528093929190818152602001838360200280828437600081840152601f19601f82011690508083019250505050505050612b13565b611d08576040517f08c379a0000000000000000000000000000000000000000000000000000000008152600401611cff90614293565b60405180910390fd5b600c54831115611d4d576040517f08c379a0000000000000000000000000000000000000000000000000000000008152600401611d44906142d3565b60405180910390fd5b60008311611d90576040517f08c379a0000000000000000000000000000000000000000000000000000000008152600401611d8790614573565b60405180910390fd5b600d5460116000611d9f612221565b73ffffffffffffffffffffffffffffffffffffffff1673ffffffffffffffffffffffffffffffffffffffff168152602001908152602001600020541115611e1b576040517f08c379a0000000000000000000000000000000000000000000000000000000008152600401611e1290614633565b60405180910390fd5b7f0000000000000000000000000000000000000000000000000000000000000000611e5684611e48610aaa565b61271090919063ffffffff16565b1115611e97576040517f08c379a0000000000000000000000000000000000000000000000000000000008152600401611e8e90614593565b60405180910390fd5b34611ead84600e546127ec90919063ffffffff16565b14611eed576040517f08c379a0000000000000000000000000000000000000000000000000000000008152600401611ee490614493565b60405180910390fd5b611f1e611f0d611f0885600e546127ec90919063ffffffff16565b611430565b60145461271090919063ffffffff16565b601481905550611f393460135461271090919063ffffffff16565b601381905550611f988360116000611f4f612221565b73ffffffffffffffffffffffffffffffffffffffff1673ffffffffffffffffffffffffffffffffffffffff1681526020019081526020016000205461271090919063ffffffff16565b50611faa83611fa5612221565b612802565b505050565b6000600560008473ffffffffffffffffffffffffffffffffffffffff1673ffffffffffffffffffffffffffffffffffffffff16815260200190815260200160002060008373ffffffffffffffffffffffffffffffffffffffff1673ffffffffffffffffffffffffffffffffffffffff16815260200190815260200160002060009054906101000a900460ff16905092915050565b61204b612221565b73ffffffffffffffffffffffffffffffffffffffff16612069611374565b73ffffffffffffffffffffffffffffffffffffffff16146120bf576040517f08c379a00000000000000000000000000000000000000000000000000000000081526004016120b690614513565b60405180910390fd5b600073ffffffffffffffffffffffffffffffffffffffff168173ffffffffffffffffffffffffffffffffffffffff16141561212f576040517f08c379a000000000000000000000000000000000000000000000000000000000815260040161212690614353565b60405180910390fd5b61213881612726565b50565b60007f780e9d63000000000000000000000000000000000000000000000000000000007bffffffffffffffffffffffffffffffffffffffffffffffffffffffff1916827bffffffffffffffffffffffffffffffffffffffffffffffffffffffff191614806121ae57506121ad82612b2a565b5b9050919050565b60008073ffffffffffffffffffffffffffffffffffffffff166002600084815260200190815260200160002060009054906101000a900473ffffffffffffffffffffffffffffffffffffffff1673ffffffffffffffffffffffffffffffffffffffff1614159050919050565b600033905090565b816004600083815260200190815260200160002060006101000a81548173ffffffffffffffffffffffffffffffffffffffff021916908373ffffffffffffffffffffffffffffffffffffffff160217905550808273ffffffffffffffffffffffffffffffffffffffff1661229c83610fdd565b73ffffffffffffffffffffffffffffffffffffffff167f8c5be1e5ebec7d5bd14f71427d1e84f3dd0314c0f7b2291e5b200ac8c7c3b92560405160405180910390a45050565b60006122ed826121b5565b61232c576040517f08c379a000000000000000000000000000000000000000000000000000000000815260040161232390614413565b60405180910390fd5b600061233783610fdd565b90508073ffffffffffffffffffffffffffffffffffffffff168473ffffffffffffffffffffffffffffffffffffffff1614806123a657508373ffffffffffffffffffffffffffffffffffffffff1661238e8461090d565b73ffffffffffffffffffffffffffffffffffffffff16145b806123b757506123b68185611faf565b5b91505092915050565b8273ffffffffffffffffffffffffffffffffffffffff166123e082610fdd565b73ffffffffffffffffffffffffffffffffffffffff1614612436576040517f08c379a000000000000000000000000000000000000000000000000000000000815260040161242d90614533565b60405180910390fd5b600073ffffffffffffffffffffffffffffffffffffffff168273ffffffffffffffffffffffffffffffffffffffff1614156124a6576040517f08c379a000000000000000000000000000000000000000000000000000000000815260040161249d90614393565b60405180910390fd5b6124b1838383612c0c565b6124bc600082612229565b6001600360008573ffffffffffffffffffffffffffffffffffffffff1673ffffffffffffffffffffffffffffffffffffffff168152602001908152602001600020600082825461250c9190614824565b925050819055506001600360008473ffffffffffffffffffffffffffffffffffffffff1673ffffffffffffffffffffffffffffffffffffffff16815260200190815260200160002060008282546125639190614743565b92505081905550816002600083815260200190815260200160002060006101000a81548173ffffffffffffffffffffffffffffffffffffffff021916908373ffffffffffffffffffffffffffffffffffffffff160217905550808273ffffffffffffffffffffffffffffffffffffffff168473ffffffffffffffffffffffffffffffffffffffff167fddf252ad1be2c89b69c2b068fc378daa952ba7f163c4a11628f55a4df523b3ef60405160405180910390a4505050565b8047101561265f576040517f08c379a0000000000000000000000000000000000000000000000000000000008152600401612656906143f3565b60405180910390fd5b60008273ffffffffffffffffffffffffffffffffffffffff1682604051612685906141bf565b60006040518083038185875af1925050503d80600081146126c2576040519150601f19603f3d011682016040523d82523d6000602084013e6126c7565b606091505b505090508061270b576040517f08c379a0000000000000000000000000000000000000000000000000000000008152600401612702906143d3565b60405180910390fd5b505050565b6000818361271e9190614743565b905092915050565b6000600a60009054906101000a900473ffffffffffffffffffffffffffffffffffffffff16905081600a60006101000a81548173ffffffffffffffffffffffffffffffffffffffff021916908373ffffffffffffffffffffffffffffffffffffffff1602179055508173ffffffffffffffffffffffffffffffffffffffff168173ffffffffffffffffffffffffffffffffffffffff167f8be0079c531659141344cd1fd0a4f28419497f9722a3daafe3b4186f6b6457e060405160405180910390a35050565b600081836127fa91906147ca565b905092915050565b60005b828110156128435760006001612819610aaa565b6128239190614743565b905061282f8382612c1c565b50808061283b9061498d565b915050612805565b505050565b6128538484846123c0565b61285f84848484612c3a565b61289e576040517f08c379a000000000000000000000000000000000000000000000000000000000815260040161289590614333565b60405180910390fd5b50505050565b6060600f80546128b39061492a565b80601f01602080910402602001604051908101604052809291908181526020018280546128df9061492a565b801561292c5780601f106129015761010080835404028352916020019161292c565b820191906000526020600020905b81548152906001019060200180831161290f57829003601f168201915b5050505050905090565b6060600082141561297e576040518060400160405280600181526020017f30000000000000000000000000000000000000000000000000000000000000008152509050612ade565b600082905060005b600082146129b05780806129999061498d565b915050600a826129a99190614799565b9150612986565b60008167ffffffffffffffff8111156129f2577f4e487b7100000000000000000000000000000000000000000000000000000000600052604160045260246000fd5b6040519080825280601f01601f191660200182016040528015612a245781602001600182028036833780820191505090505b5090505b60008514612ad757600182612a3d9190614824565b9150600a85612a4c9190614a04565b6030612a589190614743565b60f81b818381518110612a94577f4e487b7100000000000000000000000000000000000000000000000000000000600052603260045260246000fd5b60200101907effffffffffffffffffffffffffffffffffffffffffffffffffffffffffffff1916908160001a905350600a85612ad09190614799565b9450612a28565b8093505050505b919050565b600081604051602001612af69190614154565b604051602081830303815290604052805190602001209050919050565b6000612b228260105485612dd1565b905092915050565b60007f80ac58cd000000000000000000000000000000000000000000000000000000007bffffffffffffffffffffffffffffffffffffffffffffffffffffffff1916827bffffffffffffffffffffffffffffffffffffffffffffffffffffffff19161480612bf557507f5b5e139f000000000000000000000000000000000000000000000000000000007bffffffffffffffffffffffffffffffffffffffffffffffffffffffff1916827bffffffffffffffffffffffffffffffffffffffffffffffffffffffff1916145b80612c055750612c0482612ead565b5b9050919050565b612c17838383612f17565b505050565b612c3682826040518060200160405280600081525061302b565b5050565b6000612c5b8473ffffffffffffffffffffffffffffffffffffffff16613086565b15612dc4578373ffffffffffffffffffffffffffffffffffffffff1663150b7a02612c84612221565b8786866040518563ffffffff1660e01b8152600401612ca694939291906141ef565b602060405180830381600087803b158015612cc057600080fd5b505af1925050508015612cf157506040513d601f19601f82011682018060405250810190612cee9190613a6b565b60015b612d74573d8060008114612d21576040519150601f19603f3d011682016040523d82523d6000602084013e612d26565b606091505b50600081511415612d6c576040517f08c379a0000000000000000000000000000000000000000000000000000000008152600401612d6390614333565b60405180910390fd5b805181602001fd5b63150b7a0260e01b7bffffffffffffffffffffffffffffffffffffffffffffffffffffffff1916817bffffffffffffffffffffffffffffffffffffffffffffffffffffffff191614915050612dc9565b600190505b949350505050565b60008082905060005b8551811015612e9f576000868281518110612e1e577f4e487b7100000000000000000000000000000000000000000000000000000000600052603260045260246000fd5b60200260200101519050808311612e5f578281604051602001612e4292919061416f565b604051602081830303815290604052805190602001209250612e8b565b8083604051602001612e7292919061416f565b6040516020818303038152906040528051906020012092505b508080612e979061498d565b915050612dda565b508381149150509392505050565b60007f01ffc9a7000000000000000000000000000000000000000000000000000000007bffffffffffffffffffffffffffffffffffffffffffffffffffffffff1916827bffffffffffffffffffffffffffffffffffffffffffffffffffffffff1916149050919050565b612f22838383613099565b600073ffffffffffffffffffffffffffffffffffffffff168373ffffffffffffffffffffffffffffffffffffffff161415612f6557612f608161309e565b612fa4565b8173ffffffffffffffffffffffffffffffffffffffff168373ffffffffffffffffffffffffffffffffffffffff1614612fa357612fa283826130e7565b5b5b600073ffffffffffffffffffffffffffffffffffffffff168273ffffffffffffffffffffffffffffffffffffffff161415612fe757612fe281613254565b613026565b8273ffffffffffffffffffffffffffffffffffffffff168273ffffffffffffffffffffffffffffffffffffffff1614613025576130248282613397565b5b5b505050565b6130358383613416565b6130426000848484612c3a565b613081576040517f08c379a000000000000000000000000000000000000000000000000000000000815260040161307890614333565b60405180910390fd5b505050565b600080823b905060008111915050919050565b505050565b6008805490506009600083815260200190815260200160002081905550600881908060018154018082558091505060019003906000526020600020016000909190919091505550565b600060016130f48461108f565b6130fe9190614824565b90506000600760008481526020019081526020016000205490508181146131e3576000600660008673ffffffffffffffffffffffffffffffffffffffff1673ffffffffffffffffffffffffffffffffffffffff168152602001908152602001600020600084815260200190815260200160002054905080600660008773ffffffffffffffffffffffffffffffffffffffff1673ffffffffffffffffffffffffffffffffffffffff168152602001908152602001600020600084815260200190815260200160002081905550816007600083815260200190815260200160002081905550505b6007600084815260200190815260200160002060009055600660008573ffffffffffffffffffffffffffffffffffffffff1673ffffffffffffffffffffffffffffffffffffffff16815260200190815260200160002060008381526020019081526020016000206000905550505050565b600060016008805490506132689190614824565b90506000600960008481526020019081526020016000205490506000600883815481106132be577f4e487b7100000000000000000000000000000000000000000000000000000000600052603260045260246000fd5b906000526020600020015490508060088381548110613306577f4e487b7100000000000000000000000000000000000000000000000000000000600052603260045260246000fd5b90600052602060002001819055508160096000838152602001908152602001600020819055506009600085815260200190815260200160002060009055600880548061337b577f4e487b7100000000000000000000000000000000000000000000000000000000600052603160045260246000fd5b6001900381819060005260206000200160009055905550505050565b60006133a28361108f565b905081600660008573ffffffffffffffffffffffffffffffffffffffff1673ffffffffffffffffffffffffffffffffffffffff168152602001908152602001600020600083815260200190815260200160002081905550806007600084815260200190815260200160002081905550505050565b600073ffffffffffffffffffffffffffffffffffffffff168273ffffffffffffffffffffffffffffffffffffffff161415613486576040517f08c379a000000000000000000000000000000000000000000000000000000000815260040161347d906144d3565b60405180910390fd5b61348f816121b5565b156134cf576040517f08c379a00000000000000000000000000000000000000000000000000000000081526004016134c690614373565b60405180910390fd5b6134db60008383612c0c565b6001600360008473ffffffffffffffffffffffffffffffffffffffff1673ffffffffffffffffffffffffffffffffffffffff168152602001908152602001600020600082825461352b9190614743565b92505081905550816002600083815260200190815260200160002060006101000a81548173ffffffffffffffffffffffffffffffffffffffff021916908373ffffffffffffffffffffffffffffffffffffffff160217905550808273ffffffffffffffffffffffffffffffffffffffff16600073ffffffffffffffffffffffffffffffffffffffff167fddf252ad1be2c89b69c2b068fc378daa952ba7f163c4a11628f55a4df523b3ef60405160405180910390a45050565b8280546135f09061492a565b90600052602060002090601f0160209004810192826136125760008555613659565b82601f1061362b57805160ff1916838001178555613659565b82800160010185558215613659579182015b8281111561365857825182559160200191906001019061363d565b5b509050613666919061366a565b5090565b5b8082111561368357600081600090555060010161366b565b5090565b600061369a61369584614693565b61466e565b9050828152602081018484840111156136b257600080fd5b6136bd8482856148e8565b509392505050565b60006136d86136d3846146c4565b61466e565b9050828152602081018484840111156136f057600080fd5b6136fb8482856148e8565b509392505050565b6000813590506137128161521a565b92915050565b6000815190506137278161521a565b92915050565b60008083601f84011261373f57600080fd5b8235905067ffffffffffffffff81111561375857600080fd5b60208301915083602082028301111561377057600080fd5b9250929050565b60008135905061378681615231565b92915050565b60008135905061379b81615248565b92915050565b6000813590506137b08161525f565b92915050565b6000815190506137c58161525f565b92915050565b600082601f8301126137dc57600080fd5b81356137ec848260208601613687565b91505092915050565b60008151905061380481615276565b92915050565b600082601f83011261381b57600080fd5b813561382b8482602086016136c5565b91505092915050565b6000813590506138438161528d565b92915050565b60006020828403121561385b57600080fd5b600061386984828501613703565b91505092915050565b60006020828403121561388457600080fd5b600061389284828501613718565b91505092915050565b600080604083850312156138ae57600080fd5b60006138bc85828601613703565b92505060206138cd85828601613703565b9150509250929050565b6000806000606084860312156138ec57600080fd5b60006138fa86828701613703565b935050602061390b86828701613703565b925050604061391c86828701613834565b9150509250925092565b6000806000806080858703121561393c57600080fd5b600061394a87828801613703565b945050602061395b87828801613703565b935050604061396c87828801613834565b925050606085013567ffffffffffffffff81111561398957600080fd5b613995878288016137cb565b91505092959194509250565b600080604083850312156139b457600080fd5b60006139c285828601613703565b92505060206139d385828601613777565b9150509250929050565b600080604083850312156139f057600080fd5b60006139fe85828601613703565b9250506020613a0f85828601613834565b9150509250929050565b600060208284031215613a2b57600080fd5b6000613a398482850161378c565b91505092915050565b600060208284031215613a5457600080fd5b6000613a62848285016137a1565b91505092915050565b600060208284031215613a7d57600080fd5b6000613a8b848285016137b6565b91505092915050565b600060208284031215613aa657600080fd5b6000613ab4848285016137f5565b91505092915050565b600060208284031215613acf57600080fd5b600082013567ffffffffffffffff811115613ae957600080fd5b613af58482850161380a565b91505092915050565b600060208284031215613b1057600080fd5b6000613b1e84828501613834565b91505092915050565b60008060408385031215613b3a57600080fd5b6000613b4885828601613834565b9250506020613b5985828601613703565b9150509250929050565b600080600060408486031215613b7857600080fd5b6000613b8686828701613834565b935050602084013567ffffffffffffffff811115613ba357600080fd5b613baf8682870161372d565b92509250509250925092565b600080600060608486031215613bd057600080fd5b6000613bde86828701613834565b9350506020613bef86828701613834565b9250506040613c0086828701613834565b9150509250925092565b613c1381614858565b82525050565b613c2a613c2582614858565b6149d6565b82525050565b613c398161486a565b82525050565b613c4881614876565b82525050565b613c5f613c5a82614876565b6149e8565b82525050565b6000613c70826146f5565b613c7a818561470b565b9350613c8a8185602086016148f7565b613c9381614af1565b840191505092915050565b6000613ca982614700565b613cb38185614727565b9350613cc38185602086016148f7565b613ccc81614af1565b840191505092915050565b6000613ce282614700565b613cec8185614738565b9350613cfc8185602086016148f7565b80840191505092915050565b6000613d15601083614727565b9150613d2082614b0f565b602082019050919050565b6000613d38601383614727565b9150613d4382614b38565b602082019050919050565b6000613d5b601983614727565b9150613d6682614b61565b602082019050919050565b6000613d7e601383614727565b9150613d8982614b8a565b602082019050919050565b6000613da1602b83614727565b9150613dac82614bb3565b604082019050919050565b6000613dc4603283614727565b9150613dcf82614c02565b604082019050919050565b6000613de7602683614727565b9150613df282614c51565b604082019050919050565b6000613e0a601c83614727565b9150613e1582614ca0565b602082019050919050565b6000613e2d602483614727565b9150613e3882614cc9565b604082019050919050565b6000613e50601983614727565b9150613e5b82614d18565b602082019050919050565b6000613e73603a83614727565b9150613e7e82614d41565b604082019050919050565b6000613e96601d83614727565b9150613ea182614d90565b602082019050919050565b6000613eb9602c83614727565b9150613ec482614db9565b604082019050919050565b6000613edc603883614727565b9150613ee782614e08565b604082019050919050565b6000613eff602a83614727565b9150613f0a82614e57565b604082019050919050565b6000613f22602983614727565b9150613f2d82614ea6565b604082019050919050565b6000613f45601983614727565b9150613f5082614ef5565b602082019050919050565b6000613f68601683614727565b9150613f7382614f1e565b602082019050919050565b6000613f8b602083614727565b9150613f9682614f47565b602082019050919050565b6000613fae602c83614727565b9150613fb982614f70565b604082019050919050565b6000613fd1602083614727565b9150613fdc82614fbf565b602082019050919050565b6000613ff4602983614727565b9150613fff82614fe8565b604082019050919050565b6000614017602f83614727565b915061402282615037565b604082019050919050565b600061403a601883614727565b915061404582615086565b602082019050919050565b600061405d601383614727565b9150614068826150af565b602082019050919050565b6000614080602183614727565b915061408b826150d8565b604082019050919050565b60006140a360008361471c565b91506140ae82615127565b600082019050919050565b60006140c6603183614727565b91506140d18261512a565b604082019050919050565b60006140e9602c83614727565b91506140f482615179565b604082019050919050565b600061410c601783614727565b9150614117826151c8565b602082019050919050565b600061412f601b83614727565b915061413a826151f1565b602082019050919050565b61414e816148de565b82525050565b60006141608284613c19565b60148201915081905092915050565b600061417b8285613c4e565b60208201915061418b8284613c4e565b6020820191508190509392505050565b60006141a78285613cd7565b91506141b38284613cd7565b91508190509392505050565b60006141ca82614096565b9150819050919050565b60006020820190506141e96000830184613c0a565b92915050565b60006080820190506142046000830187613c0a565b6142116020830186613c0a565b61421e6040830185614145565b81810360608301526142308184613c65565b905095945050505050565b60006020820190506142506000830184613c30565b92915050565b600060208201905061426b6000830184613c3f565b92915050565b6000602082019050818103600083015261428b8184613c9e565b905092915050565b600060208201905081810360008301526142ac81613d08565b9050919050565b600060208201905081810360008301526142cc81613d2b565b9050919050565b600060208201905081810360008301526142ec81613d4e565b9050919050565b6000602082019050818103600083015261430c81613d71565b9050919050565b6000602082019050818103600083015261432c81613d94565b9050919050565b6000602082019050818103600083015261434c81613db7565b9050919050565b6000602082019050818103600083015261436c81613dda565b9050919050565b6000602082019050818103600083015261438c81613dfd565b9050919050565b600060208201905081810360008301526143ac81613e20565b9050919050565b600060208201905081810360008301526143cc81613e43565b9050919050565b600060208201905081810360008301526143ec81613e66565b9050919050565b6000602082019050818103600083015261440c81613e89565b9050919050565b6000602082019050818103600083015261442c81613eac565b9050919050565b6000602082019050818103600083015261444c81613ecf565b9050919050565b6000602082019050818103600083015261446c81613ef2565b9050919050565b6000602082019050818103600083015261448c81613f15565b9050919050565b600060208201905081810360008301526144ac81613f38565b9050919050565b600060208201905081810360008301526144cc81613f5b565b9050919050565b600060208201905081810360008301526144ec81613f7e565b9050919050565b6000602082019050818103600083015261450c81613fa1565b9050919050565b6000602082019050818103600083015261452c81613fc4565b9050919050565b6000602082019050818103600083015261454c81613fe7565b9050919050565b6000602082019050818103600083015261456c8161400a565b9050919050565b6000602082019050818103600083015261458c8161402d565b9050919050565b600060208201905081810360008301526145ac81614050565b9050919050565b600060208201905081810360008301526145cc81614073565b9050919050565b600060208201905081810360008301526145ec816140b9565b9050919050565b6000602082019050818103600083015261460c816140dc565b9050919050565b6000602082019050818103600083015261462c816140ff565b9050919050565b6000602082019050818103600083015261464c81614122565b9050919050565b60006020820190506146686000830184614145565b92915050565b6000614678614689565b9050614684828261495c565b919050565b6000604051905090565b600067ffffffffffffffff8211156146ae576146ad614ac2565b5b6146b782614af1565b9050602081019050919050565b600067ffffffffffffffff8211156146df576146de614ac2565b5b6146e882614af1565b9050602081019050919050565b600081519050919050565b600081519050919050565b600082825260208201905092915050565b600081905092915050565b600082825260208201905092915050565b600081905092915050565b600061474e826148de565b9150614759836148de565b9250827fffffffffffffffffffffffffffffffffffffffffffffffffffffffffffffffff0382111561478e5761478d614a35565b5b828201905092915050565b60006147a4826148de565b91506147af836148de565b9250826147bf576147be614a64565b5b828204905092915050565b60006147d5826148de565b91506147e0836148de565b9250817fffffffffffffffffffffffffffffffffffffffffffffffffffffffffffffffff048311821515161561481957614818614a35565b5b828202905092915050565b600061482f826148de565b915061483a836148de565b92508282101561484d5761484c614a35565b5b828203905092915050565b6000614863826148be565b9050919050565b60008115159050919050565b6000819050919050565b60007fffffffff0000000000000000000000000000000000000000000000000000000082169050919050565b60006148b782614858565b9050919050565b600073ffffffffffffffffffffffffffffffffffffffff82169050919050565b6000819050919050565b82818337600083830152505050565b60005b838110156149155780820151818401526020810190506148fa565b83811115614924576000848401525b50505050565b6000600282049050600182168061494257607f821691505b6020821081141561495657614955614a93565b5b50919050565b61496582614af1565b810181811067ffffffffffffffff8211171561498457614983614ac2565b5b80604052505050565b6000614998826148de565b91507fffffffffffffffffffffffffffffffffffffffffffffffffffffffffffffffff8214156149cb576149ca614a35565b5b600182019050919050565b60006149e1826149f2565b9050919050565b6000819050919050565b60006149fd82614b02565b9050919050565b6000614a0f826148de565b9150614a1a836148de565b925082614a2a57614a29614a64565b5b828206905092915050565b7f4e487b7100000000000000000000000000000000000000000000000000000000600052601160045260246000fd5b7f4e487b7100000000000000000000000000000000000000000000000000000000600052601260045260246000fd5b7f4e487b7100000000000000000000000000000000000000000000000000000000600052602260045260246000fd5b7f4e487b7100000000000000000000000000000000000000000000000000000000600052604160045260246000fd5b6000601f19601f8301169050919050565b60008160601b9050919050565b7f4e6f742070617274206f66206c69737400000000000000000000000000000000600082015250565b7f53616c65206d7573742062652061637469766500000000000000000000000000600082015250565b7f4578636565646564206d6178696d756d20706572206d696e7400000000000000600082015250565b7f4e6f7468696e6720746f20776974686472617700000000000000000000000000600082015250565b7f455243373231456e756d657261626c653a206f776e657220696e646578206f7560008201527f74206f6620626f756e6473000000000000000000000000000000000000000000602082015250565b7f4552433732313a207472616e7366657220746f206e6f6e20455243373231526560008201527f63656976657220696d706c656d656e7465720000000000000000000000000000602082015250565b7f4f776e61626c653a206e6577206f776e657220697320746865207a65726f206160008201527f6464726573730000000000000000000000000000000000000000000000000000602082015250565b7f4552433732313a20746f6b656e20616c7265616479206d696e74656400000000600082015250565b7f4552433732313a207472616e7366657220746f20746865207a65726f2061646460008201527f7265737300000000000000000000000000000000000000000000000000000000602082015250565b7f4552433732313a20617070726f766520746f2063616c6c657200000000000000600082015250565b7f416464726573733a20756e61626c6520746f2073656e642076616c75652c207260008201527f6563697069656e74206d61792068617665207265766572746564000000000000602082015250565b7f416464726573733a20696e73756666696369656e742062616c616e6365000000600082015250565b7f4552433732313a206f70657261746f7220717565727920666f72206e6f6e657860008201527f697374656e7420746f6b656e0000000000000000000000000000000000000000602082015250565b7f4552433732313a20617070726f76652063616c6c6572206973206e6f74206f7760008201527f6e6572206e6f7220617070726f76656420666f7220616c6c0000000000000000602082015250565b7f4552433732313a2062616c616e636520717565727920666f7220746865207a6560008201527f726f206164647265737300000000000000000000000000000000000000000000602082015250565b7f4552433732313a206f776e657220717565727920666f72206e6f6e657869737460008201527f656e7420746f6b656e0000000000000000000000000000000000000000000000602082015250565b7f56616c75652073656e74206973206e6f7420636f727265637400000000000000600082015250565b7f53616c6520697320616c72656164792070617573656400000000000000000000600082015250565b7f4552433732313a206d696e7420746f20746865207a65726f2061646472657373600082015250565b7f4552433732313a20617070726f76656420717565727920666f72206e6f6e657860008201527f697374656e7420746f6b656e0000000000000000000000000000000000000000602082015250565b7f4f776e61626c653a2063616c6c6572206973206e6f7420746865206f776e6572600082015250565b7f4552433732313a207472616e73666572206f6620746f6b656e2074686174206960008201527f73206e6f74206f776e0000000000000000000000000000000000000000000000602082015250565b7f4552433732314d657461646174613a2055524920717565727920666f72206e6f60008201527f6e6578697374656e7420746f6b656e0000000000000000000000000000000000602082015250565b7f4d757374206d696e742067726561746572207468616e20300000000000000000600082015250565b7f4578636565646564206d617820737570706c7900000000000000000000000000600082015250565b7f4552433732313a20617070726f76616c20746f2063757272656e74206f776e6560008201527f7200000000000000000000000000000000000000000000000000000000000000602082015250565b50565b7f4552433732313a207472616e736665722063616c6c6572206973206e6f74206f60008201527f776e6572206e6f7220617070726f766564000000000000000000000000000000602082015250565b7f455243373231456e756d657261626c653a20676c6f62616c20696e646578206f60008201527f7574206f6620626f756e64730000000000000000000000000000000000000000602082015250565b7f53616c6520697320616c72656164792073746172746564000000000000000000600082015250565b7f4578636565646564206d6178696d756d207065722077616c6c65740000000000600082015250565b61522381614858565b811461522e57600080fd5b50565b61523a8161486a565b811461524557600080fd5b50565b61525181614876565b811461525c57600080fd5b50565b61526881614880565b811461527357600080fd5b50565b61527f816148ac565b811461528a57600080fd5b50565b615296816148de565b81146152a157600080fd5b5056fea2646970667358221220696d83690423ed8193967e6cbdb27ad3dfdffdab63252b9556cafe414a67318c64736f6c63430008040033",
  "linkReferences": {},
  "deployedLinkReferences": {}
}