{
  "_format": "hh-sol-artifact-1",
  "contractName": "DropKitCollection",
  "sourceName": "contracts/DropKitCollection.sol",
  "abi": [
    {
      "inputs": [
        {
          "internalType": "string",
          "name": "name",
          "type": "string"
        },
        {
          "internalType": "string",
          "name": "symbol",
          "type": "string"
        },
        {
          "internalType": "uint256",
          "name": "maxAmount",
          "type": "uint256"
        },
        {
          "internalType": "uint256",
          "name": "maxPerMint",
          "type": "uint256"
        },
        {
          "internalType": "uint256",
          "name": "maxPerWallet",
          "type": "uint256"
        },
        {
          "internalType": "uint256",
          "name": "price",
          "type": "uint256"
        },
        {
          "internalType": "string",
          "name": "tokenBaseURI",
          "type": "string"
        }
      ],
      "stateMutability": "nonpayable",
      "type": "constructor"
    },
    {
      "anonymous": false,
      "inputs": [
        {
          "indexed": true,
          "internalType": "address",
          "name": "owner",
          "type": "address"
        },
        {
          "indexed": true,
          "internalType": "address",
          "name": "approved",
          "type": "address"
        },
        {
          "indexed": true,
          "internalType": "uint256",
          "name": "tokenId",
          "type": "uint256"
        }
      ],
      "name": "Approval",
      "type": "event"
    },
    {
      "anonymous": false,
      "inputs": [
        {
          "indexed": true,
          "internalType": "address",
          "name": "owner",
          "type": "address"
        },
        {
          "indexed": true,
          "internalType": "address",
          "name": "operator",
          "type": "address"
        },
        {
          "indexed": false,
          "internalType": "bool",
          "name": "approved",
          "type": "bool"
        }
      ],
      "name": "ApprovalForAll",
      "type": "event"
    },
    {
      "anonymous": false,
      "inputs": [
        {
          "indexed": true,
          "internalType": "address",
          "name": "previousOwner",
          "type": "address"
        },
        {
          "indexed": true,
          "internalType": "address",
          "name": "newOwner",
          "type": "address"
        }
      ],
      "name": "OwnershipTransferred",
      "type": "event"
    },
    {
      "anonymous": false,
      "inputs": [
        {
          "indexed": true,
          "internalType": "address",
          "name": "from",
          "type": "address"
        },
        {
          "indexed": true,
          "internalType": "address",
          "name": "to",
          "type": "address"
        },
        {
          "indexed": true,
          "internalType": "uint256",
          "name": "tokenId",
          "type": "uint256"
        }
      ],
      "name": "Transfer",
      "type": "event"
    },
    {
      "inputs": [],
      "name": "_maxAmount",
      "outputs": [
        {
          "internalType": "uint256",
          "name": "",
          "type": "uint256"
        }
      ],
      "stateMutability": "view",
      "type": "function"
    },
    {
      "inputs": [],
      "name": "_maxPerMint",
      "outputs": [
        {
          "internalType": "uint256",
          "name": "",
          "type": "uint256"
        }
      ],
      "stateMutability": "view",
      "type": "function"
    },
    {
      "inputs": [],
      "name": "_maxPerWallet",
      "outputs": [
        {
          "internalType": "uint256",
          "name": "",
          "type": "uint256"
        }
      ],
      "stateMutability": "view",
      "type": "function"
    },
    {
      "inputs": [],
      "name": "_price",
      "outputs": [
        {
          "internalType": "uint256",
          "name": "",
          "type": "uint256"
        }
      ],
      "stateMutability": "view",
      "type": "function"
    },
    {
      "inputs": [
        {
          "internalType": "uint256",
          "name": "numberOfTokens",
          "type": "uint256"
        }
      ],
      "name": "adminMint",
      "outputs": [],
      "stateMutability": "payable",
      "type": "function"
    },
    {
      "inputs": [
        {
          "internalType": "address",
          "name": "to",
          "type": "address"
        },
        {
          "internalType": "uint256",
          "name": "tokenId",
          "type": "uint256"
        }
      ],
      "name": "approve",
      "outputs": [],
      "stateMutability": "nonpayable",
      "type": "function"
    },
    {
      "inputs": [
        {
          "internalType": "address",
          "name": "owner",
          "type": "address"
        }
      ],
      "name": "balanceOf",
      "outputs": [
        {
          "internalType": "uint256",
          "name": "",
          "type": "uint256"
        }
      ],
      "stateMutability": "view",
      "type": "function"
    },
    {
      "inputs": [
        {
          "internalType": "uint256",
          "name": "tokenId",
          "type": "uint256"
        }
      ],
      "name": "getApproved",
      "outputs": [
        {
          "internalType": "address",
          "name": "",
          "type": "address"
        }
      ],
      "stateMutability": "view",
      "type": "function"
    },
    {
      "inputs": [
        {
          "internalType": "address",
          "name": "owner",
          "type": "address"
        },
        {
          "internalType": "address",
          "name": "operator",
          "type": "address"
        }
      ],
      "name": "isApprovedForAll",
      "outputs": [
        {
          "internalType": "bool",
          "name": "",
          "type": "bool"
        }
      ],
      "stateMutability": "view",
      "type": "function"
    },
    {
      "inputs": [
        {
          "internalType": "uint256",
          "name": "numberOfTokens",
          "type": "uint256"
        }
      ],
      "name": "mint",
      "outputs": [],
      "stateMutability": "payable",
      "type": "function"
    },
    {
      "inputs": [],
      "name": "name",
      "outputs": [
        {
          "internalType": "string",
          "name": "",
          "type": "string"
        }
      ],
      "stateMutability": "view",
      "type": "function"
    },
    {
      "inputs": [],
      "name": "owner",
      "outputs": [
        {
          "internalType": "address",
          "name": "",
          "type": "address"
        }
      ],
      "stateMutability": "view",
      "type": "function"
    },
    {
      "inputs": [
        {
          "internalType": "uint256",
          "name": "tokenId",
          "type": "uint256"
        }
      ],
      "name": "ownerOf",
      "outputs": [
        {
          "internalType": "address",
          "name": "",
          "type": "address"
        }
      ],
      "stateMutability": "view",
      "type": "function"
    },
    {
      "inputs": [],
      "name": "pause",
      "outputs": [],
      "stateMutability": "nonpayable",
      "type": "function"
    },
    {
      "inputs": [],
      "name": "renounceOwnership",
      "outputs": [],
      "stateMutability": "nonpayable",
      "type": "function"
    },
    {
      "inputs": [
        {
          "internalType": "address",
          "name": "from",
          "type": "address"
        },
        {
          "internalType": "address",
          "name": "to",
          "type": "address"
        },
        {
          "internalType": "uint256",
          "name": "tokenId",
          "type": "uint256"
        }
      ],
      "name": "safeTransferFrom",
      "outputs": [],
      "stateMutability": "nonpayable",
      "type": "function"
    },
    {
      "inputs": [
        {
          "internalType": "address",
          "name": "from",
          "type": "address"
        },
        {
          "internalType": "address",
          "name": "to",
          "type": "address"
        },
        {
          "internalType": "uint256",
          "name": "tokenId",
          "type": "uint256"
        },
        {
          "internalType": "bytes",
          "name": "_data",
          "type": "bytes"
        }
      ],
      "name": "safeTransferFrom",
      "outputs": [],
      "stateMutability": "nonpayable",
      "type": "function"
    },
    {
      "inputs": [
        {
          "internalType": "address",
          "name": "operator",
          "type": "address"
        },
        {
          "internalType": "bool",
          "name": "approved",
          "type": "bool"
        }
      ],
      "name": "setApprovalForAll",
      "outputs": [],
      "stateMutability": "nonpayable",
      "type": "function"
    },
    {
      "inputs": [
        {
          "internalType": "string",
          "name": "newBaseURI",
          "type": "string"
        }
      ],
      "name": "setBaseURI",
      "outputs": [],
      "stateMutability": "nonpayable",
      "type": "function"
    },
    {
      "inputs": [],
      "name": "start",
      "outputs": [],
      "stateMutability": "nonpayable",
      "type": "function"
    },
    {
      "inputs": [],
      "name": "started",
      "outputs": [
        {
          "internalType": "bool",
          "name": "",
          "type": "bool"
        }
      ],
      "stateMutability": "view",
      "type": "function"
    },
    {
      "inputs": [
        {
          "internalType": "bytes4",
          "name": "interfaceId",
          "type": "bytes4"
        }
      ],
      "name": "supportsInterface",
      "outputs": [
        {
          "internalType": "bool",
          "name": "",
          "type": "bool"
        }
      ],
      "stateMutability": "view",
      "type": "function"
    },
    {
      "inputs": [],
      "name": "symbol",
      "outputs": [
        {
          "internalType": "string",
          "name": "",
          "type": "string"
        }
      ],
      "stateMutability": "view",
      "type": "function"
    },
    {
      "inputs": [
        {
          "internalType": "uint256",
          "name": "index",
          "type": "uint256"
        }
      ],
      "name": "tokenByIndex",
      "outputs": [
        {
          "internalType": "uint256",
          "name": "",
          "type": "uint256"
        }
      ],
      "stateMutability": "view",
      "type": "function"
    },
    {
      "inputs": [
        {
          "internalType": "address",
          "name": "owner",
          "type": "address"
        },
        {
          "internalType": "uint256",
          "name": "index",
          "type": "uint256"
        }
      ],
      "name": "tokenOfOwnerByIndex",
      "outputs": [
        {
          "internalType": "uint256",
          "name": "",
          "type": "uint256"
        }
      ],
      "stateMutability": "view",
      "type": "function"
    },
    {
      "inputs": [
        {
          "internalType": "uint256",
          "name": "tokenId",
          "type": "uint256"
        }
      ],
      "name": "tokenURI",
      "outputs": [
        {
          "internalType": "string",
          "name": "",
          "type": "string"
        }
      ],
      "stateMutability": "view",
      "type": "function"
    },
    {
      "inputs": [],
      "name": "totalSupply",
      "outputs": [
        {
          "internalType": "uint256",
          "name": "",
          "type": "uint256"
        }
      ],
      "stateMutability": "view",
      "type": "function"
    },
    {
      "inputs": [
        {
          "internalType": "address",
          "name": "from",
          "type": "address"
        },
        {
          "internalType": "address",
          "name": "to",
          "type": "address"
        },
        {
          "internalType": "uint256",
          "name": "tokenId",
          "type": "uint256"
        }
      ],
      "name": "transferFrom",
      "outputs": [],
      "stateMutability": "nonpayable",
      "type": "function"
    },
    {
      "inputs": [
        {
          "internalType": "address",
          "name": "newOwner",
          "type": "address"
        }
      ],
      "name": "transferOwnership",
      "outputs": [],
      "stateMutability": "nonpayable",
      "type": "function"
    },
    {
      "inputs": [],
      "name": "withdraw",
      "outputs": [],
      "stateMutability": "nonpayable",
      "type": "function"
    }
  ],
  "bytecode": "0x60806040526000601160006101000a81548160ff0219169083151502179055503480156200002c57600080fd5b5060405162004b6338038062004b638339818101604052810190620000529190620002f1565b868681600090805190602001906200006c929190620001b8565b50806001908051906020019062000085929190620001b8565b505050620000a86200009c620000ea60201b60201c565b620000f260201b60201c565b84600b8190555083600c8190555082600d8190555081600e8190555080600f9080519060200190620000dc929190620001b8565b50505050505050506200057d565b600033905090565b6000600a60009054906101000a900473ffffffffffffffffffffffffffffffffffffffff16905081600a60006101000a81548173ffffffffffffffffffffffffffffffffffffffff021916908373ffffffffffffffffffffffffffffffffffffffff1602179055508173ffffffffffffffffffffffffffffffffffffffff168173ffffffffffffffffffffffffffffffffffffffff167f8be0079c531659141344cd1fd0a4f28419497f9722a3daafe3b4186f6b6457e060405160405180910390a35050565b828054620001c69062000488565b90600052602060002090601f016020900481019282620001ea576000855562000236565b82601f106200020557805160ff191683800117855562000236565b8280016001018555821562000236579182015b828111156200023557825182559160200191906001019062000218565b5b50905062000245919062000249565b5090565b5b80821115620002645760008160009055506001016200024a565b5090565b60006200027f620002798462000412565b620003e9565b9050828152602081018484840111156200029857600080fd5b620002a584828562000452565b509392505050565b600082601f830112620002bf57600080fd5b8151620002d184826020860162000268565b91505092915050565b600081519050620002eb8162000563565b92915050565b600080600080600080600060e0888a0312156200030d57600080fd5b600088015167ffffffffffffffff8111156200032857600080fd5b620003368a828b01620002ad565b975050602088015167ffffffffffffffff8111156200035457600080fd5b620003628a828b01620002ad565b9650506040620003758a828b01620002da565b9550506060620003888a828b01620002da565b94505060806200039b8a828b01620002da565b93505060a0620003ae8a828b01620002da565b92505060c088015167ffffffffffffffff811115620003cc57600080fd5b620003da8a828b01620002ad565b91505092959891949750929550565b6000620003f562000408565b9050620004038282620004be565b919050565b6000604051905090565b600067ffffffffffffffff82111562000430576200042f62000523565b5b6200043b8262000552565b9050602081019050919050565b6000819050919050565b60005b838110156200047257808201518184015260208101905062000455565b8381111562000482576000848401525b50505050565b60006002820490506001821680620004a157607f821691505b60208210811415620004b857620004b7620004f4565b5b50919050565b620004c98262000552565b810181811067ffffffffffffffff82111715620004eb57620004ea62000523565b5b80604052505050565b7f4e487b7100000000000000000000000000000000000000000000000000000000600052602260045260246000fd5b7f4e487b7100000000000000000000000000000000000000000000000000000000600052604160045260246000fd5b6000601f19601f8301169050919050565b6200056e8162000448565b81146200057a57600080fd5b50565b6145d6806200058d6000396000f3fe6080604052600436106101cd5760003560e01c8063715018a6116100f7578063a22cb46511610095578063c596bc6411610064578063c596bc6414610622578063c87b56dd1461064d578063e985e9c51461068a578063f2fde38b146106c7576101cd565b8063a22cb4651461059d578063b88d4fde146105c6578063be9a6555146105ef578063c1f2612314610606576101cd565b80638456cb59116100d15780638456cb59146105145780638da5cb5b1461052b57806395d89b4114610556578063a0712d6814610581576101cd565b8063715018a6146104a75780637e6decae146104be5780637fa8e5e4146104e9576101cd565b806323b872dd1161016f5780634f6ccce71161013e5780634f6ccce7146103c757806355f804b3146104045780636352211e1461042d57806370a082311461046a576101cd565b806323b872dd146103215780632f745c591461034a5780633ccfd60b1461038757806342842e0e1461039e576101cd565b8063095ea7b3116101ab578063095ea7b31461027757806318160ddd146102a05780631f2698ab146102cb578063235b6ea1146102f6576101cd565b806301ffc9a7146101d257806306fdde031461020f578063081812fc1461023a575b600080fd5b3480156101de57600080fd5b506101f960048036038101906101f49190612fda565b6106f0565b6040516102069190613620565b60405180910390f35b34801561021b57600080fd5b50610224610702565b604051610231919061363b565b60405180910390f35b34801561024657600080fd5b50610261600480360381019061025c919061306d565b610794565b60405161026e91906135b9565b60405180910390f35b34801561028357600080fd5b5061029e60048036038101906102999190612f9e565b610819565b005b3480156102ac57600080fd5b506102b5610931565b6040516102c291906139fd565b60405180910390f35b3480156102d757600080fd5b506102e061093e565b6040516102ed9190613620565b60405180910390f35b34801561030257600080fd5b5061030b610951565b60405161031891906139fd565b60405180910390f35b34801561032d57600080fd5b5061034860048036038101906103439190612e98565b610957565b005b34801561035657600080fd5b50610371600480360381019061036c9190612f9e565b6109b7565b60405161037e91906139fd565b60405180910390f35b34801561039357600080fd5b5061039c610a5c565b005b3480156103aa57600080fd5b506103c560048036038101906103c09190612e98565b610b01565b005b3480156103d357600080fd5b506103ee60048036038101906103e9919061306d565b610b21565b6040516103fb91906139fd565b60405180910390f35b34801561041057600080fd5b5061042b6004803603810190610426919061302c565b610bb8565b005b34801561043957600080fd5b50610454600480360381019061044f919061306d565b610c4e565b60405161046191906135b9565b60405180910390f35b34801561047657600080fd5b50610491600480360381019061048c9190612e33565b610d00565b60405161049e91906139fd565b60405180910390f35b3480156104b357600080fd5b506104bc610db8565b005b3480156104ca57600080fd5b506104d3610e40565b6040516104e091906139fd565b60405180910390f35b3480156104f557600080fd5b506104fe610e46565b60405161050b91906139fd565b60405180910390f35b34801561052057600080fd5b50610529610e4c565b005b34801561053757600080fd5b50610540610f3b565b60405161054d91906135b9565b60405180910390f35b34801561056257600080fd5b5061056b610f65565b604051610578919061363b565b60405180910390f35b61059b6004803603810190610596919061306d565b610ff7565b005b3480156105a957600080fd5b506105c460048036038101906105bf9190612f62565b611282565b005b3480156105d257600080fd5b506105ed60048036038101906105e89190612ee7565b611403565b005b3480156105fb57600080fd5b50610604611465565b005b610620600480360381019061061b919061306d565b611554565b005b34801561062e57600080fd5b50610637611698565b60405161064491906139fd565b60405180910390f35b34801561065957600080fd5b50610674600480360381019061066f919061306d565b61169e565b604051610681919061363b565b60405180910390f35b34801561069657600080fd5b506106b160048036038101906106ac9190612e5c565b611745565b6040516106be9190613620565b60405180910390f35b3480156106d357600080fd5b506106ee60048036038101906106e99190612e33565b6117d9565b005b60006106fb826118d1565b9050919050565b60606000805461071190613cb8565b80601f016020809104026020016040519081016040528092919081815260200182805461073d90613cb8565b801561078a5780601f1061075f5761010080835404028352916020019161078a565b820191906000526020600020905b81548152906001019060200180831161076d57829003601f168201915b5050505050905090565b600061079f8261194b565b6107de576040517f08c379a00000000000000000000000000000000000000000000000000000000081526004016107d59061389d565b60405180910390fd5b6004600083815260200190815260200160002060009054906101000a900473ffffffffffffffffffffffffffffffffffffffff169050919050565b600061082482610c4e565b90508073ffffffffffffffffffffffffffffffffffffffff168373ffffffffffffffffffffffffffffffffffffffff161415610895576040517f08c379a000000000000000000000000000000000000000000000000000000000815260040161088c9061395d565b60405180910390fd5b8073ffffffffffffffffffffffffffffffffffffffff166108b46119b7565b73ffffffffffffffffffffffffffffffffffffffff1614806108e357506108e2816108dd6119b7565b611745565b5b610922576040517f08c379a0000000000000000000000000000000000000000000000000000000008152600401610919906137dd565b60405180910390fd5b61092c83836119bf565b505050565b6000600880549050905090565b601160009054906101000a900460ff1681565b600e5481565b6109686109626119b7565b82611a78565b6109a7576040517f08c379a000000000000000000000000000000000000000000000000000000000815260040161099e9061397d565b60405180910390fd5b6109b2838383611b56565b505050565b60006109c283610d00565b8210610a03576040517f08c379a00000000000000000000000000000000000000000000000000000000081526004016109fa906136bd565b60405180910390fd5b600660008473ffffffffffffffffffffffffffffffffffffffff1673ffffffffffffffffffffffffffffffffffffffff168152602001908152602001600020600083815260200190815260200160002054905092915050565b60004711610a9f576040517f08c379a0000000000000000000000000000000000000000000000000000000008152600401610a969061369d565b60405180910390fd5b60004790506000612710826101f4610ab79190613b74565b610ac19190613b43565b9050610ae173b27eb5fb526b542dcfba2438888d2a1519d7b9a882611db2565b610afd610aec610f3b565b8284610af89190613bce565b611db2565b5050565b610b1c83838360405180602001604052806000815250611403565b505050565b6000610b2b610931565b8210610b6c576040517f08c379a0000000000000000000000000000000000000000000000000000000008152600401610b639061399d565b60405180910390fd5b60088281548110610ba6577f4e487b7100000000000000000000000000000000000000000000000000000000600052603260045260246000fd5b90600052602060002001549050919050565b610bc06119b7565b73ffffffffffffffffffffffffffffffffffffffff16610bde610f3b565b73ffffffffffffffffffffffffffffffffffffffff1614610c34576040517f08c379a0000000000000000000000000000000000000000000000000000000008152600401610c2b906138bd565b60405180910390fd5b80600f9080519060200190610c4a929190612c57565b5050565b6000806002600084815260200190815260200160002060009054906101000a900473ffffffffffffffffffffffffffffffffffffffff169050600073ffffffffffffffffffffffffffffffffffffffff168173ffffffffffffffffffffffffffffffffffffffff161415610cf7576040517f08c379a0000000000000000000000000000000000000000000000000000000008152600401610cee9061381d565b60405180910390fd5b80915050919050565b60008073ffffffffffffffffffffffffffffffffffffffff168273ffffffffffffffffffffffffffffffffffffffff161415610d71576040517f08c379a0000000000000000000000000000000000000000000000000000000008152600401610d68906137fd565b60405180910390fd5b600360008373ffffffffffffffffffffffffffffffffffffffff1673ffffffffffffffffffffffffffffffffffffffff168152602001908152602001600020549050919050565b610dc06119b7565b73ffffffffffffffffffffffffffffffffffffffff16610dde610f3b565b73ffffffffffffffffffffffffffffffffffffffff1614610e34576040517f08c379a0000000000000000000000000000000000000000000000000000000008152600401610e2b906138bd565b60405180910390fd5b610e3e6000611ea6565b565b600b5481565b600d5481565b610e546119b7565b73ffffffffffffffffffffffffffffffffffffffff16610e72610f3b565b73ffffffffffffffffffffffffffffffffffffffff1614610ec8576040517f08c379a0000000000000000000000000000000000000000000000000000000008152600401610ebf906138bd565b60405180910390fd5b60011515601160009054906101000a900460ff16151514610f1e576040517f08c379a0000000000000000000000000000000000000000000000000000000008152600401610f159061385d565b60405180910390fd5b6000601160006101000a81548160ff021916908315150217905550565b6000600a60009054906101000a900473ffffffffffffffffffffffffffffffffffffffff16905090565b606060018054610f7490613cb8565b80601f0160208091040260200160405190810160405280929190818152602001828054610fa090613cb8565b8015610fed5780601f10610fc257610100808354040283529160200191610fed565b820191906000526020600020905b815481529060010190602001808311610fd057829003601f168201915b5050505050905090565b60011515601160009054906101000a900460ff1615151461104d576040517f08c379a00000000000000000000000000000000000000000000000000000000081526004016110449061365d565b60405180910390fd5b600c54811115611092576040517f08c379a00000000000000000000000000000000000000000000000000000000081526004016110899061367d565b60405180910390fd5b600081116110d5576040517f08c379a00000000000000000000000000000000000000000000000000000000081526004016110cc9061391d565b60405180910390fd5b600d54601060006110e46119b7565b73ffffffffffffffffffffffffffffffffffffffff1673ffffffffffffffffffffffffffffffffffffffff168152602001908152602001600020541115611160576040517f08c379a0000000000000000000000000000000000000000000000000000000008152600401611157906139dd565b60405180910390fd5b600b5461117d8261116f610931565b611f6c90919063ffffffff16565b11156111be576040517f08c379a00000000000000000000000000000000000000000000000000000000081526004016111b59061393d565b60405180910390fd5b346111d482600e54611f8290919063ffffffff16565b14611214576040517f08c379a000000000000000000000000000000000000000000000000000000000815260040161120b9061383d565b60405180910390fd5b61126d81601060006112246119b7565b73ffffffffffffffffffffffffffffffffffffffff1673ffffffffffffffffffffffffffffffffffffffff16815260200190815260200160002054611f6c90919063ffffffff16565b5061127f8161127a6119b7565b611f98565b50565b61128a6119b7565b73ffffffffffffffffffffffffffffffffffffffff168273ffffffffffffffffffffffffffffffffffffffff1614156112f8576040517f08c379a00000000000000000000000000000000000000000000000000000000081526004016112ef9061375d565b60405180910390fd5b80600560006113056119b7565b73ffffffffffffffffffffffffffffffffffffffff1673ffffffffffffffffffffffffffffffffffffffff16815260200190815260200160002060008473ffffffffffffffffffffffffffffffffffffffff1673ffffffffffffffffffffffffffffffffffffffff16815260200190815260200160002060006101000a81548160ff0219169083151502179055508173ffffffffffffffffffffffffffffffffffffffff166113b26119b7565b73ffffffffffffffffffffffffffffffffffffffff167f17307eab39ab6107e8899845ad3d59bd9653f200f220920489ca2b5937696c31836040516113f79190613620565b60405180910390a35050565b61141461140e6119b7565b83611a78565b611453576040517f08c379a000000000000000000000000000000000000000000000000000000000815260040161144a9061397d565b60405180910390fd5b61145f84848484611fde565b50505050565b61146d6119b7565b73ffffffffffffffffffffffffffffffffffffffff1661148b610f3b565b73ffffffffffffffffffffffffffffffffffffffff16146114e1576040517f08c379a00000000000000000000000000000000000000000000000000000000081526004016114d8906138bd565b60405180910390fd5b60001515601160009054906101000a900460ff16151514611537576040517f08c379a000000000000000000000000000000000000000000000000000000000815260040161152e906139bd565b60405180910390fd5b6001601160006101000a81548160ff021916908315150217905550565b61155c6119b7565b73ffffffffffffffffffffffffffffffffffffffff1661157a610f3b565b73ffffffffffffffffffffffffffffffffffffffff16146115d0576040517f08c379a00000000000000000000000000000000000000000000000000000000081526004016115c7906138bd565b60405180910390fd5b600b546115ed826115df610931565b611f6c90919063ffffffff16565b111561162e576040517f08c379a00000000000000000000000000000000000000000000000000000000081526004016116259061393d565b60405180910390fd5b3461164482600e54611f8290919063ffffffff16565b14611684576040517f08c379a000000000000000000000000000000000000000000000000000000000815260040161167b9061383d565b60405180910390fd5b611695816116906119b7565b611f98565b50565b600c5481565b60606116a98261194b565b6116e8576040517f08c379a00000000000000000000000000000000000000000000000000000000081526004016116df906138fd565b60405180910390fd5b60006116f261203a565b90506000815111611712576040518060200160405280600081525061173d565b8061171c846120cc565b60405160200161172d929190613580565b6040516020818303038152906040525b915050919050565b6000600560008473ffffffffffffffffffffffffffffffffffffffff1673ffffffffffffffffffffffffffffffffffffffff16815260200190815260200160002060008373ffffffffffffffffffffffffffffffffffffffff1673ffffffffffffffffffffffffffffffffffffffff16815260200190815260200160002060009054906101000a900460ff16905092915050565b6117e16119b7565b73ffffffffffffffffffffffffffffffffffffffff166117ff610f3b565b73ffffffffffffffffffffffffffffffffffffffff1614611855576040517f08c379a000000000000000000000000000000000000000000000000000000000815260040161184c906138bd565b60405180910390fd5b600073ffffffffffffffffffffffffffffffffffffffff168173ffffffffffffffffffffffffffffffffffffffff1614156118c5576040517f08c379a00000000000000000000000000000000000000000000000000000000081526004016118bc906136fd565b60405180910390fd5b6118ce81611ea6565b50565b60007f780e9d63000000000000000000000000000000000000000000000000000000007bffffffffffffffffffffffffffffffffffffffffffffffffffffffff1916827bffffffffffffffffffffffffffffffffffffffffffffffffffffffff19161480611944575061194382612279565b5b9050919050565b60008073ffffffffffffffffffffffffffffffffffffffff166002600084815260200190815260200160002060009054906101000a900473ffffffffffffffffffffffffffffffffffffffff1673ffffffffffffffffffffffffffffffffffffffff1614159050919050565b600033905090565b816004600083815260200190815260200160002060006101000a81548173ffffffffffffffffffffffffffffffffffffffff021916908373ffffffffffffffffffffffffffffffffffffffff160217905550808273ffffffffffffffffffffffffffffffffffffffff16611a3283610c4e565b73ffffffffffffffffffffffffffffffffffffffff167f8c5be1e5ebec7d5bd14f71427d1e84f3dd0314c0f7b2291e5b200ac8c7c3b92560405160405180910390a45050565b6000611a838261194b565b611ac2576040517f08c379a0000000000000000000000000000000000000000000000000000000008152600401611ab9906137bd565b60405180910390fd5b6000611acd83610c4e565b90508073ffffffffffffffffffffffffffffffffffffffff168473ffffffffffffffffffffffffffffffffffffffff161480611b3c57508373ffffffffffffffffffffffffffffffffffffffff16611b2484610794565b73ffffffffffffffffffffffffffffffffffffffff16145b80611b4d5750611b4c8185611745565b5b91505092915050565b8273ffffffffffffffffffffffffffffffffffffffff16611b7682610c4e565b73ffffffffffffffffffffffffffffffffffffffff1614611bcc576040517f08c379a0000000000000000000000000000000000000000000000000000000008152600401611bc3906138dd565b60405180910390fd5b600073ffffffffffffffffffffffffffffffffffffffff168273ffffffffffffffffffffffffffffffffffffffff161415611c3c576040517f08c379a0000000000000000000000000000000000000000000000000000000008152600401611c339061373d565b60405180910390fd5b611c4783838361235b565b611c526000826119bf565b6001600360008573ffffffffffffffffffffffffffffffffffffffff1673ffffffffffffffffffffffffffffffffffffffff1681526020019081526020016000206000828254611ca29190613bce565b925050819055506001600360008473ffffffffffffffffffffffffffffffffffffffff1673ffffffffffffffffffffffffffffffffffffffff1681526020019081526020016000206000828254611cf99190613aed565b92505081905550816002600083815260200190815260200160002060006101000a81548173ffffffffffffffffffffffffffffffffffffffff021916908373ffffffffffffffffffffffffffffffffffffffff160217905550808273ffffffffffffffffffffffffffffffffffffffff168473ffffffffffffffffffffffffffffffffffffffff167fddf252ad1be2c89b69c2b068fc378daa952ba7f163c4a11628f55a4df523b3ef60405160405180910390a4505050565b80471015611df5576040517f08c379a0000000000000000000000000000000000000000000000000000000008152600401611dec9061379d565b60405180910390fd5b60008273ffffffffffffffffffffffffffffffffffffffff1682604051611e1b906135a4565b60006040518083038185875af1925050503d8060008114611e58576040519150601f19603f3d011682016040523d82523d6000602084013e611e5d565b606091505b5050905080611ea1576040517f08c379a0000000000000000000000000000000000000000000000000000000008152600401611e989061377d565b60405180910390fd5b505050565b6000600a60009054906101000a900473ffffffffffffffffffffffffffffffffffffffff16905081600a60006101000a81548173ffffffffffffffffffffffffffffffffffffffff021916908373ffffffffffffffffffffffffffffffffffffffff1602179055508173ffffffffffffffffffffffffffffffffffffffff168173ffffffffffffffffffffffffffffffffffffffff167f8be0079c531659141344cd1fd0a4f28419497f9722a3daafe3b4186f6b6457e060405160405180910390a35050565b60008183611f7a9190613aed565b905092915050565b60008183611f909190613b74565b905092915050565b60005b82811015611fd95760006001611faf610931565b611fb99190613aed565b9050611fc5838261236b565b508080611fd190613d1b565b915050611f9b565b505050565b611fe9848484611b56565b611ff584848484612389565b612034576040517f08c379a000000000000000000000000000000000000000000000000000000000815260040161202b906136dd565b60405180910390fd5b50505050565b6060600f805461204990613cb8565b80601f016020809104026020016040519081016040528092919081815260200182805461207590613cb8565b80156120c25780601f10612097576101008083540402835291602001916120c2565b820191906000526020600020905b8154815290600101906020018083116120a557829003601f168201915b5050505050905090565b60606000821415612114576040518060400160405280600181526020017f30000000000000000000000000000000000000000000000000000000000000008152509050612274565b600082905060005b6000821461214657808061212f90613d1b565b915050600a8261213f9190613b43565b915061211c565b60008167ffffffffffffffff811115612188577f4e487b7100000000000000000000000000000000000000000000000000000000600052604160045260246000fd5b6040519080825280601f01601f1916602001820160405280156121ba5781602001600182028036833780820191505090505b5090505b6000851461226d576001826121d39190613bce565b9150600a856121e29190613d64565b60306121ee9190613aed565b60f81b81838151811061222a577f4e487b7100000000000000000000000000000000000000000000000000000000600052603260045260246000fd5b60200101907effffffffffffffffffffffffffffffffffffffffffffffffffffffffffffff1916908160001a905350600a856122669190613b43565b94506121be565b8093505050505b919050565b60007f80ac58cd000000000000000000000000000000000000000000000000000000007bffffffffffffffffffffffffffffffffffffffffffffffffffffffff1916827bffffffffffffffffffffffffffffffffffffffffffffffffffffffff1916148061234457507f5b5e139f000000000000000000000000000000000000000000000000000000007bffffffffffffffffffffffffffffffffffffffffffffffffffffffff1916827bffffffffffffffffffffffffffffffffffffffffffffffffffffffff1916145b80612354575061235382612520565b5b9050919050565b61236683838361258a565b505050565b61238582826040518060200160405280600081525061269e565b5050565b60006123aa8473ffffffffffffffffffffffffffffffffffffffff166126f9565b15612513578373ffffffffffffffffffffffffffffffffffffffff1663150b7a026123d36119b7565b8786866040518563ffffffff1660e01b81526004016123f594939291906135d4565b602060405180830381600087803b15801561240f57600080fd5b505af192505050801561244057506040513d601f19601f8201168201806040525081019061243d9190613003565b60015b6124c3573d8060008114612470576040519150601f19603f3d011682016040523d82523d6000602084013e612475565b606091505b506000815114156124bb576040517f08c379a00000000000000000000000000000000000000000000000000000000081526004016124b2906136dd565b60405180910390fd5b805181602001fd5b63150b7a0260e01b7bffffffffffffffffffffffffffffffffffffffffffffffffffffffff1916817bffffffffffffffffffffffffffffffffffffffffffffffffffffffff191614915050612518565b600190505b949350505050565b60007f01ffc9a7000000000000000000000000000000000000000000000000000000007bffffffffffffffffffffffffffffffffffffffffffffffffffffffff1916827bffffffffffffffffffffffffffffffffffffffffffffffffffffffff1916149050919050565b61259583838361270c565b600073ffffffffffffffffffffffffffffffffffffffff168373ffffffffffffffffffffffffffffffffffffffff1614156125d8576125d381612711565b612617565b8173ffffffffffffffffffffffffffffffffffffffff168373ffffffffffffffffffffffffffffffffffffffff161461261657612615838261275a565b5b5b600073ffffffffffffffffffffffffffffffffffffffff168273ffffffffffffffffffffffffffffffffffffffff16141561265a57612655816128c7565b612699565b8273ffffffffffffffffffffffffffffffffffffffff168273ffffffffffffffffffffffffffffffffffffffff1614612698576126978282612a0a565b5b5b505050565b6126a88383612a89565b6126b56000848484612389565b6126f4576040517f08c379a00000000000000000000000000000000000000000000000000000000081526004016126eb906136dd565b60405180910390fd5b505050565b600080823b905060008111915050919050565b505050565b6008805490506009600083815260200190815260200160002081905550600881908060018154018082558091505060019003906000526020600020016000909190919091505550565b6000600161276784610d00565b6127719190613bce565b9050600060076000848152602001908152602001600020549050818114612856576000600660008673ffffffffffffffffffffffffffffffffffffffff1673ffffffffffffffffffffffffffffffffffffffff168152602001908152602001600020600084815260200190815260200160002054905080600660008773ffffffffffffffffffffffffffffffffffffffff1673ffffffffffffffffffffffffffffffffffffffff168152602001908152602001600020600084815260200190815260200160002081905550816007600083815260200190815260200160002081905550505b6007600084815260200190815260200160002060009055600660008573ffffffffffffffffffffffffffffffffffffffff1673ffffffffffffffffffffffffffffffffffffffff16815260200190815260200160002060008381526020019081526020016000206000905550505050565b600060016008805490506128db9190613bce565b9050600060096000848152602001908152602001600020549050600060088381548110612931577f4e487b7100000000000000000000000000000000000000000000000000000000600052603260045260246000fd5b906000526020600020015490508060088381548110612979577f4e487b7100000000000000000000000000000000000000000000000000000000600052603260045260246000fd5b9060005260206000200181905550816009600083815260200190815260200160002081905550600960008581526020019081526020016000206000905560088054806129ee577f4e487b7100000000000000000000000000000000000000000000000000000000600052603160045260246000fd5b6001900381819060005260206000200160009055905550505050565b6000612a1583610d00565b905081600660008573ffffffffffffffffffffffffffffffffffffffff1673ffffffffffffffffffffffffffffffffffffffff168152602001908152602001600020600083815260200190815260200160002081905550806007600084815260200190815260200160002081905550505050565b600073ffffffffffffffffffffffffffffffffffffffff168273ffffffffffffffffffffffffffffffffffffffff161415612af9576040517f08c379a0000000000000000000000000000000000000000000000000000000008152600401612af09061387d565b60405180910390fd5b612b028161194b565b15612b42576040517f08c379a0000000000000000000000000000000000000000000000000000000008152600401612b399061371d565b60405180910390fd5b612b4e6000838361235b565b6001600360008473ffffffffffffffffffffffffffffffffffffffff1673ffffffffffffffffffffffffffffffffffffffff1681526020019081526020016000206000828254612b9e9190613aed565b92505081905550816002600083815260200190815260200160002060006101000a81548173ffffffffffffffffffffffffffffffffffffffff021916908373ffffffffffffffffffffffffffffffffffffffff160217905550808273ffffffffffffffffffffffffffffffffffffffff16600073ffffffffffffffffffffffffffffffffffffffff167fddf252ad1be2c89b69c2b068fc378daa952ba7f163c4a11628f55a4df523b3ef60405160405180910390a45050565b828054612c6390613cb8565b90600052602060002090601f016020900481019282612c855760008555612ccc565b82601f10612c9e57805160ff1916838001178555612ccc565b82800160010185558215612ccc579182015b82811115612ccb578251825591602001919060010190612cb0565b5b509050612cd99190612cdd565b5090565b5b80821115612cf6576000816000905550600101612cde565b5090565b6000612d0d612d0884613a3d565b613a18565b905082815260208101848484011115612d2557600080fd5b612d30848285613c76565b509392505050565b6000612d4b612d4684613a6e565b613a18565b905082815260208101848484011115612d6357600080fd5b612d6e848285613c76565b509392505050565b600081359050612d8581614544565b92915050565b600081359050612d9a8161455b565b92915050565b600081359050612daf81614572565b92915050565b600081519050612dc481614572565b92915050565b600082601f830112612ddb57600080fd5b8135612deb848260208601612cfa565b91505092915050565b600082601f830112612e0557600080fd5b8135612e15848260208601612d38565b91505092915050565b600081359050612e2d81614589565b92915050565b600060208284031215612e4557600080fd5b6000612e5384828501612d76565b91505092915050565b60008060408385031215612e6f57600080fd5b6000612e7d85828601612d76565b9250506020612e8e85828601612d76565b9150509250929050565b600080600060608486031215612ead57600080fd5b6000612ebb86828701612d76565b9350506020612ecc86828701612d76565b9250506040612edd86828701612e1e565b9150509250925092565b60008060008060808587031215612efd57600080fd5b6000612f0b87828801612d76565b9450506020612f1c87828801612d76565b9350506040612f2d87828801612e1e565b925050606085013567ffffffffffffffff811115612f4a57600080fd5b612f5687828801612dca565b91505092959194509250565b60008060408385031215612f7557600080fd5b6000612f8385828601612d76565b9250506020612f9485828601612d8b565b9150509250929050565b60008060408385031215612fb157600080fd5b6000612fbf85828601612d76565b9250506020612fd085828601612e1e565b9150509250929050565b600060208284031215612fec57600080fd5b6000612ffa84828501612da0565b91505092915050565b60006020828403121561301557600080fd5b600061302384828501612db5565b91505092915050565b60006020828403121561303e57600080fd5b600082013567ffffffffffffffff81111561305857600080fd5b61306484828501612df4565b91505092915050565b60006020828403121561307f57600080fd5b600061308d84828501612e1e565b91505092915050565b61309f81613c02565b82525050565b6130ae81613c14565b82525050565b60006130bf82613a9f565b6130c98185613ab5565b93506130d9818560208601613c85565b6130e281613e51565b840191505092915050565b60006130f882613aaa565b6131028185613ad1565b9350613112818560208601613c85565b61311b81613e51565b840191505092915050565b600061313182613aaa565b61313b8185613ae2565b935061314b818560208601613c85565b80840191505092915050565b6000613164601383613ad1565b915061316f82613e62565b602082019050919050565b6000613187601983613ad1565b915061319282613e8b565b602082019050919050565b60006131aa601383613ad1565b91506131b582613eb4565b602082019050919050565b60006131cd602b83613ad1565b91506131d882613edd565b604082019050919050565b60006131f0603283613ad1565b91506131fb82613f2c565b604082019050919050565b6000613213602683613ad1565b915061321e82613f7b565b604082019050919050565b6000613236601c83613ad1565b915061324182613fca565b602082019050919050565b6000613259602483613ad1565b915061326482613ff3565b604082019050919050565b600061327c601983613ad1565b915061328782614042565b602082019050919050565b600061329f603a83613ad1565b91506132aa8261406b565b604082019050919050565b60006132c2601d83613ad1565b91506132cd826140ba565b602082019050919050565b60006132e5602c83613ad1565b91506132f0826140e3565b604082019050919050565b6000613308603883613ad1565b915061331382614132565b604082019050919050565b600061332b602a83613ad1565b915061333682614181565b604082019050919050565b600061334e602983613ad1565b9150613359826141d0565b604082019050919050565b6000613371601983613ad1565b915061337c8261421f565b602082019050919050565b6000613394601683613ad1565b915061339f82614248565b602082019050919050565b60006133b7602083613ad1565b91506133c282614271565b602082019050919050565b60006133da602c83613ad1565b91506133e58261429a565b604082019050919050565b60006133fd602083613ad1565b9150613408826142e9565b602082019050919050565b6000613420602983613ad1565b915061342b82614312565b604082019050919050565b6000613443602f83613ad1565b915061344e82614361565b604082019050919050565b6000613466601883613ad1565b9150613471826143b0565b602082019050919050565b6000613489601383613ad1565b9150613494826143d9565b602082019050919050565b60006134ac602183613ad1565b91506134b782614402565b604082019050919050565b60006134cf600083613ac6565b91506134da82614451565b600082019050919050565b60006134f2603183613ad1565b91506134fd82614454565b604082019050919050565b6000613515602c83613ad1565b9150613520826144a3565b604082019050919050565b6000613538601783613ad1565b9150613543826144f2565b602082019050919050565b600061355b601b83613ad1565b91506135668261451b565b602082019050919050565b61357a81613c6c565b82525050565b600061358c8285613126565b91506135988284613126565b91508190509392505050565b60006135af826134c2565b9150819050919050565b60006020820190506135ce6000830184613096565b92915050565b60006080820190506135e96000830187613096565b6135f66020830186613096565b6136036040830185613571565b818103606083015261361581846130b4565b905095945050505050565b600060208201905061363560008301846130a5565b92915050565b6000602082019050818103600083015261365581846130ed565b905092915050565b6000602082019050818103600083015261367681613157565b9050919050565b600060208201905081810360008301526136968161317a565b9050919050565b600060208201905081810360008301526136b68161319d565b9050919050565b600060208201905081810360008301526136d6816131c0565b9050919050565b600060208201905081810360008301526136f6816131e3565b9050919050565b6000602082019050818103600083015261371681613206565b9050919050565b6000602082019050818103600083015261373681613229565b9050919050565b600060208201905081810360008301526137568161324c565b9050919050565b600060208201905081810360008301526137768161326f565b9050919050565b6000602082019050818103600083015261379681613292565b9050919050565b600060208201905081810360008301526137b6816132b5565b9050919050565b600060208201905081810360008301526137d6816132d8565b9050919050565b600060208201905081810360008301526137f6816132fb565b9050919050565b600060208201905081810360008301526138168161331e565b9050919050565b6000602082019050818103600083015261383681613341565b9050919050565b6000602082019050818103600083015261385681613364565b9050919050565b6000602082019050818103600083015261387681613387565b9050919050565b60006020820190508181036000830152613896816133aa565b9050919050565b600060208201905081810360008301526138b6816133cd565b9050919050565b600060208201905081810360008301526138d6816133f0565b9050919050565b600060208201905081810360008301526138f681613413565b9050919050565b6000602082019050818103600083015261391681613436565b9050919050565b6000602082019050818103600083015261393681613459565b9050919050565b600060208201905081810360008301526139568161347c565b9050919050565b600060208201905081810360008301526139768161349f565b9050919050565b60006020820190508181036000830152613996816134e5565b9050919050565b600060208201905081810360008301526139b681613508565b9050919050565b600060208201905081810360008301526139d68161352b565b9050919050565b600060208201905081810360008301526139f68161354e565b9050919050565b6000602082019050613a126000830184613571565b92915050565b6000613a22613a33565b9050613a2e8282613cea565b919050565b6000604051905090565b600067ffffffffffffffff821115613a5857613a57613e22565b5b613a6182613e51565b9050602081019050919050565b600067ffffffffffffffff821115613a8957613a88613e22565b5b613a9282613e51565b9050602081019050919050565b600081519050919050565b600081519050919050565b600082825260208201905092915050565b600081905092915050565b600082825260208201905092915050565b600081905092915050565b6000613af882613c6c565b9150613b0383613c6c565b9250827fffffffffffffffffffffffffffffffffffffffffffffffffffffffffffffffff03821115613b3857613b37613d95565b5b828201905092915050565b6000613b4e82613c6c565b9150613b5983613c6c565b925082613b6957613b68613dc4565b5b828204905092915050565b6000613b7f82613c6c565b9150613b8a83613c6c565b9250817fffffffffffffffffffffffffffffffffffffffffffffffffffffffffffffffff0483118215151615613bc357613bc2613d95565b5b828202905092915050565b6000613bd982613c6c565b9150613be483613c6c565b925082821015613bf757613bf6613d95565b5b828203905092915050565b6000613c0d82613c4c565b9050919050565b60008115159050919050565b60007fffffffff0000000000000000000000000000000000000000000000000000000082169050919050565b600073ffffffffffffffffffffffffffffffffffffffff82169050919050565b6000819050919050565b82818337600083830152505050565b60005b83811015613ca3578082015181840152602081019050613c88565b83811115613cb2576000848401525b50505050565b60006002820490506001821680613cd057607f821691505b60208210811415613ce457613ce3613df3565b5b50919050565b613cf382613e51565b810181811067ffffffffffffffff82111715613d1257613d11613e22565b5b80604052505050565b6000613d2682613c6c565b91507fffffffffffffffffffffffffffffffffffffffffffffffffffffffffffffffff821415613d5957613d58613d95565b5b600182019050919050565b6000613d6f82613c6c565b9150613d7a83613c6c565b925082613d8a57613d89613dc4565b5b828206905092915050565b7f4e487b7100000000000000000000000000000000000000000000000000000000600052601160045260246000fd5b7f4e487b7100000000000000000000000000000000000000000000000000000000600052601260045260246000fd5b7f4e487b7100000000000000000000000000000000000000000000000000000000600052602260045260246000fd5b7f4e487b7100000000000000000000000000000000000000000000000000000000600052604160045260246000fd5b6000601f19601f8301169050919050565b7f53616c65206d7573742062652061637469766500000000000000000000000000600082015250565b7f4578636565646564206d6178696d756d20706572206d696e7400000000000000600082015250565b7f4e6f7468696e6720746f20776974686472617700000000000000000000000000600082015250565b7f455243373231456e756d657261626c653a206f776e657220696e646578206f7560008201527f74206f6620626f756e6473000000000000000000000000000000000000000000602082015250565b7f4552433732313a207472616e7366657220746f206e6f6e20455243373231526560008201527f63656976657220696d706c656d656e7465720000000000000000000000000000602082015250565b7f4f776e61626c653a206e6577206f776e657220697320746865207a65726f206160008201527f6464726573730000000000000000000000000000000000000000000000000000602082015250565b7f4552433732313a20746f6b656e20616c7265616479206d696e74656400000000600082015250565b7f4552433732313a207472616e7366657220746f20746865207a65726f2061646460008201527f7265737300000000000000000000000000000000000000000000000000000000602082015250565b7f4552433732313a20617070726f766520746f2063616c6c657200000000000000600082015250565b7f416464726573733a20756e61626c6520746f2073656e642076616c75652c207260008201527f6563697069656e74206d61792068617665207265766572746564000000000000602082015250565b7f416464726573733a20696e73756666696369656e742062616c616e6365000000600082015250565b7f4552433732313a206f70657261746f7220717565727920666f72206e6f6e657860008201527f697374656e7420746f6b656e0000000000000000000000000000000000000000602082015250565b7f4552433732313a20617070726f76652063616c6c6572206973206e6f74206f7760008201527f6e6572206e6f7220617070726f76656420666f7220616c6c0000000000000000602082015250565b7f4552433732313a2062616c616e636520717565727920666f7220746865207a6560008201527f726f206164647265737300000000000000000000000000000000000000000000602082015250565b7f4552433732313a206f776e657220717565727920666f72206e6f6e657869737460008201527f656e7420746f6b656e0000000000000000000000000000000000000000000000602082015250565b7f56616c75652073656e74206973206e6f7420636f727265637400000000000000600082015250565b7f53616c6520697320616c72656164792070617573656400000000000000000000600082015250565b7f4552433732313a206d696e7420746f20746865207a65726f2061646472657373600082015250565b7f4552433732313a20617070726f76656420717565727920666f72206e6f6e657860008201527f697374656e7420746f6b656e0000000000000000000000000000000000000000602082015250565b7f4f776e61626c653a2063616c6c6572206973206e6f7420746865206f776e6572600082015250565b7f4552433732313a207472616e73666572206f6620746f6b656e2074686174206960008201527f73206e6f74206f776e0000000000000000000000000000000000000000000000602082015250565b7f4552433732314d657461646174613a2055524920717565727920666f72206e6f60008201527f6e6578697374656e7420746f6b656e0000000000000000000000000000000000602082015250565b7f4d757374206d696e742067726561746572207468616e20300000000000000000600082015250565b7f4578636565646564206d617820737570706c7900000000000000000000000000600082015250565b7f4552433732313a20617070726f76616c20746f2063757272656e74206f776e6560008201527f7200000000000000000000000000000000000000000000000000000000000000602082015250565b50565b7f4552433732313a207472616e736665722063616c6c6572206973206e6f74206f60008201527f776e6572206e6f7220617070726f766564000000000000000000000000000000602082015250565b7f455243373231456e756d657261626c653a20676c6f62616c20696e646578206f60008201527f7574206f6620626f756e64730000000000000000000000000000000000000000602082015250565b7f53616c6520697320616c72656164792073746172746564000000000000000000600082015250565b7f4578636565646564206d6178696d756d207065722077616c6c65740000000000600082015250565b61454d81613c02565b811461455857600080fd5b50565b61456481613c14565b811461456f57600080fd5b50565b61457b81613c20565b811461458657600080fd5b50565b61459281613c6c565b811461459d57600080fd5b5056fea26469706673582212204430a7ff4cc05c52307bce3faef056649bbc90e59fc71d1ce29120c3cd11917a64736f6c63430008040033",
  "linkReferences": {},
  "deployedLinkReferences": {}
}